:020000040800F2
:10000000000001201D330008552900085B29000865
:1000100061290008672900086D2900080000000018
:10002000000000000000000000000000732900082C
:100030007F290008000000008B290008972900088C
:100040006D3300086D3300086D3300086D33000810
:100050006D3300086D3300086D3300086D33000800
:100060006D3300086D3300086D330008A5290008C2
:10007000B9290008CD290008E12900086D330008DE
:100080006D3300086D3300086D3300086D330008D0
:100090006D3300086D3300086D3300086D330008C0
:1000A0006D3300086D3300086D3300086D330008B0
:1000B0006D3300086D3300086D3300086D330008A0
:1000C0006D3300086D3300086D3300086D33000890
:1000D000F5290008092A00081D2A00086D330008C8
:1000E0006D3300086D3300086D3300086D33000870
:1000F0006D3300086D3300086D3300086D33000860
:100100006D3300086D330008312A00086D33000894
:100110006D3300086D3300086D3300086D3300083F
:100120006D3300086D3300086D3300086D3300082F
:080130006D3300086D33000877
:1001400010B5054C237833B9044B13B10448AFF311
:1001500000800123237010BD680000200000000013
:1001600024C4000808B5034B1BB103490348AFF38F
:10017000008008BD000000006C00002024C40008BE
:1001800001F0FF01102A2BDB10F0070F08D010F848
:10019000013B013A8B422DD010F0070F42B3F6D14C
:1001A000F0B441EA012141EA014122F007047FF065
:1001B00000070023F0E80256083C85EA010586EABC
:1001C000010685FA47F5A3FA87F586FA47F6A5FAF8
:1001D00087F68EB9EED1F0BC01F0FF0102F0070204
:1001E00032B110F8013B013A83EA010313B1F8D1AF
:1001F0000020704701387047002D06BF3546033890
:10020000073815F0010F07D1013015F4807F02BFC8
:10021000013015F4C03F0130F0BC0138704700BF19
:1002200053B94AB9002908BF00281CBF4FF0FF315D
:100230004FF0FF3000F070B9ADF1080C6DE904CE5D
:1002400000F006F8DDF804E0DDE9022304B07047B1
:100250002DE9F047089E0D4604460F46002B4AD173
:100260008A42944665D9B2FA82F343B102FA03FC9A
:10027000C3F120029F4020FA02F217439C404FEA4C
:100280001C4E1FFA8CF5B7FBFEF1220C0EFB11770A
:1002900042EA074201FB05F090420AD91CEB020238
:1002A00001F1FF3780F01B81904240F21881023942
:1002B0006244121AA4B2B2FBFEF00EFB102244EA12
:1002C000024400FB05F5A5420AD91CEB040400F129
:1002D000FF3280F00681A54240F203816444023877
:1002E00040EA0140641B00211EB1DC400023C6E946
:1002F0000043BDE8F0878B4208D9002E00F0EC8067
:100300000021C6E900050846BDE8F087B3FA83F18D
:10031000002949D1AB4202D3824200F2F780841A0D
:1003200065EB030201201746002EE2D0C6E9004724
:10033000DFE702B9FFDEB2FA82F3002B40F08F80D4
:100340008A1A4FEA1C471FFA8CFE0121B2FBF7F50F
:1003500007FB1520220C42EA00420EFB05F09042FA
:1003600008D91CEB020205F1FF3802D2904200F2DC
:10037000CA804546121AA4B2B2FBF7F007FB10225E
:1003800044EA02440EFB00FEA64508D91CEB040417
:1003900000F1FF3202D2A64500F2BA801046A4EB6B
:1003A0000E0440EA05409FE7C1F120078B4022FA86
:1003B00007FC4CEA030C05FA01F420FA07F3FD40B0
:1003C000234300FA01F94FEA1C401FFA8CFEB5FBEB
:1003D000F0F81C0C00FB185544EA054408FB0EF528
:1003E000A54202FA01F20BD91CEB040408F1FF3A12
:1003F00080F08780A54240F28480A8F1020864441E
:10040000641B9DB2B4FBF0F300FB134445EA0444C3
:1004100003FB0EFEA64508D91CEB040403F1FF30D4
:100420006BD2A64569D9023B644443EA0840A0FB6D
:100430000283A4EB0E049C42C6461D4655D352D0FF
:1004400056B1B9EB0E0364EB050404FA07F7CB4091
:10045000CC401F43C6E900740021BDE8F087C3F11A
:10046000200102FA03FC20FA01F225FA01F19D4075
:100470002A434FEA1C471FFA8CFEB1FBF7F007FB3B
:100480001015110C41EA054100FB0EF58D4204FAEE
:1004900003F408D91CEB010100F1FF382FD28D4283
:1004A0002DD902386144491B92B2B1FBF7F507FB25
:1004B000151142EA014205FB0EF1914208D91CEBED
:1004C000020205F1FF3816D2914214D9023D62446E
:1004D000521A45EA004139E73146304609E73946C4
:1004E000E7E61046FCE6C145AAD2B8EB020E63EB84
:1004F0000C050138A4E74546EAE7034695E7404680
:10050000D1E7D0467CE7023D624433E708460BE77B
:100510006444023843E700BF704700BF80B588B02D
:1005200000AF78607B685A78214B1A700123FB6119
:100530000323BB617B6802331B78FB60F9681D48AD
:1005400000F064F900237B6111E0BB697A68134411
:100550001978174AFB6913440A461A70FB6901337C
:10056000FB61BB690133BB617B6901337B617A69E4
:10057000FB689A42E9DB0E490F4800F047F9002377
:100580003B610AE00A4A3B6913441B7819460B4851
:1005900000F03CF93B6901333B613A69FB689A42E0
:1005A000F0DB074800F032F900BF2037BD4680BDC0
:1005B000B40100203CC4000854C4000868C400080A
:1005C00070C4000880B586B000AF78600B46FB7041
:1005D000344800F01BF9FB781946334800F016F94F
:1005E00000237B610AE07B697A6813441B78194613
:1005F0002E4800F00BF97B6901337B61FB787A6947
:100600009A42F0DB2A4800F001F900237B81FB7855
:100610001946786800F076F903467B81254B7E22E7
:100620001A7001233B610023FB600EE0FB687A68CF
:10063000134419781F4A3B6913440A461A703B69F0
:1006400001333B61FB680133FB60FB78FA689A4237
:10065000ECDB7B891B0A9BB2D9B2164A3B69134477
:100660000A461A703B6901333B617B89D9B2114A52
:100670003B6913440A461A703B6901333B610D4ADA
:100680003B6913447E221A70962200210A480BF01F
:1006900047FA9622002109480BF042FA00BF1837AA
:1006A000BD4680BD74C400088CC4000868C400083E
:1006B00070C400086C030020840000201C0100208E
:1006C00080B586B000AF78600B46FB707868FFF7A6
:1006D00025FF3A4B72221A70384B9C225A70374BC6
:1006E00064229A70354BA622DA70344B64221A7158
:1006F000324B40225A71314BE0229A712F4B7222B9
:10070000DA712E4B9C221A722C4B64225A722B4B9C
:10071000A6229A72294B6422DA72284B40221A735D
:10072000264B61225A73254B03229A73234BF022E6
:10073000DA7310237B6100233B610EE0204A3B69A2
:10074000134419781D4A7B6913440A461A707B6961
:1007500001337B613B6901333B61FB783A699A4223
:10076000ECDB184800F052F87969174800F04EF8B1
:100770000023FB600AE0114AFB6813441B7819460A
:10078000124800F043F8FB680133FB60FA687B69AC
:100790009A42F0DB0E4800F039F87A690D490748B3
:1007A00000F0EFF8B860BB68DBB219460948FFF704
:1007B00009FF00BF1837BD4680BD00BF8400002080
:1007C000B4010020ACC40008C4C4000868C4000818
:1007D00070C400081C01002080B485B000AF7860B0
:1007E000094B1B6800225A6202E0FB680133FB6080
:1007F000054B1B685B6A7A689A42F6D800BF00BF57
:100800001437BD4680BC7047D00400200FB480B5BB
:1008100082B000AF07F114033B603B683A69642182
:100820000A480BF06FF9094800F014F878607B680B
:100830009AB24FF47A730549054805F022FF00BFCC
:100840000837BD46BDE8804004B07047180200205C
:10085000B405002080B485B000AF78600023FB6051
:1008600002E0FB680133FB607B685A1C7A601B78EE
:10087000002BF6D1FB6818461437BD4680BC704784
:1008800080B485B000AF78604FF0B0439A6C4FF001
:10089000B0417B6813438B644FF0B0439A6C7B6824
:1008A0001340FB60FB6800BF1437BD4680BC704737
:1008B00080B500AF0420FFF7E3FF0120FFF7E0FF62
:1008C000002200210B2002F096FE0B2002F0ADFE6C
:1008D000002200210C2002F08EFE0C2002F0A5FE6A
:1008E000002200210D2002F086FE0D2002F09DFE68
:1008F000002200210E2002F07EFE0E2002F095FE66
:1009000000BF80BD80B487B000AF786039604FF61B
:10091000FF73FB8241F221037B8100233B6126E0D0
:100920007A683B6913441B781B021AB2B7F9163078
:1009300053401BB2FB820023FB6012E0B7F9163074
:10094000002B08DAFB8A5B001AB2B7F90A30534071
:100950001BB2FB8202E0FB8A5B00FB82FB68013377
:10096000FB60FB68072BE9DD3B6901333B613A69BA
:100970003B689A42D4D3FB8A18461C37BD4680BCDC
:10098000704780B48FB000AFF860B9607A60002320
:100990007B6300233B63002387F82F300723BB6270
:1009A00000237B6200233B620023FB6178E0072386
:1009B000BB616FE0FB69FA6813441B781A46BB6998
:1009C00042FA03F303F001037B617A69BB6A02FA1E
:1009D00003F35AB297F92F3013435BB287F82F30E5
:1009E000BB6A013BBB627B69002B2FD03B6B0133A1
:1009F0003B633B6B052B2BD1BB6A002B10DA7B6B67
:100A00005A1C7A631A46BB68134497F82F201A7051
:100A10007B6A01337B62002387F82F300723BB6298
:100A20000122BB6A02FA03F35BB2DB435AB297F9C5
:100A30002F3013405BB287F82F30BB6A013BBB629B
:100A40003B6A01333B6200233B6301E000233B63CD
:100A5000BB6A002B10DA7B6B5A1C7A631A46BB68A0
:100A6000134497F82F201A707B6A01337B620023AE
:100A700087F82F300723BB623B6A082B07DDBB6A70
:100A8000002B04DB7B6A01337B6200233B62BB6982
:100A9000013BBB61BB69002B8CDAFB690133FB6155
:100AA000FA697B689A4282DBBB6A062B0BDC7B6BA4
:100AB0005A1C7A631A46BB68134497F82F201A70A1
:100AC0007B6A01337B627B6B18463C37BD4680BC3A
:100AD000704780B48DB000AFF860B9607A600023D1
:100AE000FB620023BB62002387F8273007233B62A9
:100AF0000023FB6152E00723BB6149E0FB69FA6810
:100B000013441B781A46BB6942FA03F303F001034E
:100B10007B617B69002B11D0BB6A0133BB627A69B0
:100B20003B6A02FA03F35AB297F9273013435BB2D8
:100B300087F827303B6A013B3B6215E0BB6A052B17
:100B400002D10023BB6220E00023BB627A693B6ACA
:100B500002FA03F35AB297F9273013435BB287F8CE
:100B600027303B6A013B3B623B6A002B0DDAFB6A94
:100B70005A1CFA621A46BB68134497F827201A7069
:100B8000002387F8273007233B62BB69013BBB6129
:100B9000BB69002BB2DAFB690133FB61FA697B6840
:100BA0009A42A8DB3B6A062B08DCFB6A5A1CFA62F5
:100BB0001A46BB68134497F827201A70FB6A184638
:100BC0003437BD4680BC704780B485B000AF7860D4
:100BD0004FF0B043DA6C4FF0B0417B681343CB6405
:100BE0004FF0B043DA6C7B681340FB60FB6800BFDA
:100BF0001437BD4680BC704780B586B000AF3B1D42
:100C000000221A605A609A60DA601A610120FFF7C8
:100C1000DBFF0220FFF7D8FF0420FFF7D5FF0022FB
:100C20004FF40A411F4803F0FDF9002238211E4805
:100C300003F0F8F94FF40A437B600123BB60002303
:100C4000FB6002233B613B1D1946164803F08AF8FE
:100C500038237B600123BB600023FB6003233B61DF
:100C60003B1D1946104803F07DF803237B604FF4C9
:100C70000413BB600123FB603B1D19464FF09040FD
:100C800003F070F840237B604FF40413BB60012332
:100C9000FB603B1D1946044803F064F800BF183799
:100CA000BD4680BD000400480008004880B487B0FD
:100CB00000AF7860396000237B6100233B61002333
:100CC000FB600023BB6013E0BB687A6813441B78A9
:100CD0007E2B0AD17B69002B04D101237B61BB6889
:100CE0003B6102E0BB68FB6006E0BB680133BB60B0
:100CF000BA683B689A42E7DBFA683B699A4204DDCE
:100D0000FA683B69D31A013301E04FF0FF3318460C
:100D10001C37BD4680BC704780B588B002AF02F07A
:100D200027FB00F06BFAFFF767FFFFF7C1FD02F04A
:100D300011F902F075F801F03DFF02F0BFF80AF07A
:100D400030FB7F4805F0C6F97E48FFF75FFD7E481F
:100D5000FFF75CFD7D48FFF759FD7D4A7D497E48E0
:100D6000FFF754FD7D48FFF751FD0E23009301234B
:100D7000002204217A48FFF749FD7A48FFF746FD33
:100D8000794B00221A70784B64221A72764B082233
:100D90005A80754B04221A71734B18225A71724B88
:100DA00000229A71704B0022DA716F4BF2225A7254
:100DB0006D4B01229A726D4B00221A706B4B0D2203
:100DC0005A736A4B4FF496625A60684B40F6B832D9
:100DD0009A60664B0B221A73654809F099F8002156
:100DE000002009F001FF604809F060FE614A07F148
:100DF0000C0392E8030083E8030007F10C03184694
:100E000009F01DF940F2FF1009F068F9504809F0A7
:100E100041FC012301220021042009F0BDFB022234
:100E20000E21012009F0A2FC504809F06DFD0023BD
:100E3000002240F20F2140F20F2009F0CFFB01E029
:100E400001F026FC4C4B1B68002BF9D04B48FFF7F8
:100E5000DDFC4B48FFF7DAFC4A48FFF7D7FC4A486D
:100E6000FFF7D4FC3A494948FFF7D0FC3F4B5B6899
:100E700019464748FFF7CAFC3C4B9B681946454852
:100E8000FFF7C4FC394B5B7B19464348FFF7BEFCB8
:100E9000354B1B7819464148FFF7B8FC324B1B7A9B
:100EA00019463F48FFF7B2FC2F4B5B8819463D4877
:100EB000FFF7ACFC2C4B1B7919463B48FFF7A6FC0F
:100EC000294BDB7919463948FFF7A0FC3848FFF772
:100ED0009DFC1F4809F0DEFB002101200AF022F8EA
:100EE0006FF07F4009F002FA324B1B789BB21A4632
:100EF0003149324805F010FD2E4B1B789BB21A4643
:100F00002D492F4805F008FD2E48FFF765FC2E4BB4
:100F10001B68002B00F03F812C4B1B78194626489C
:100F2000FFF7CEFB96212A48FFF7C0FE0346294A69
:100F3000136027492848FFF769FC00237B6161E0C3
:100F4000D0040020E8C4000824C5000858C50008E3
:100F50006859F21918D0111A74C50008B4C50008F0
:100F6000DCC5000830C600087C020020900200208A
:100F700081170008C8C80008A00400205CC600084B
:100F8000A4C60008C4C60008E4C6000810C70008CC
:100F900038C7000848C7000864C7000880C70008B1
:100FA00094C70008ACC70008C4C70008DCC7000825
:100FB000F0C70008010000201403002048060020AC
:100FC0002005002020A10700680300201103002055
:100FD0006C0300209C0400201CC800086F4A7B6939
:100FE000134419786E4A7B6913440A461A706C4A96
:100FF0007B6913441B7819466A48FFF707FC7B6935
:1010000001337B61684B1B687A699A42E6DB67486B
:10101000FFF7FCFB644B1B6819466548FFF7F6FBBE
:10102000644B1B781A46002163480AF079FD96222A
:1010300000215A480AF074FD604B00221A705A4B86
:101040001B68DAB25D4B1A725C4B08225A805B4B0C
:1010500004221A71594B18225A71584B00229A7166
:10106000564B0022DA71554BF2225A72534B012231
:101070009A72534B00221A70514B0D225A73504BE7
:101080004FF496525A604E4B42F6E0629A604C4BD7
:101090000B221A734B4808F03BFF0021002009F097
:1010A000A3FD414B1B68DBB219463D4808F082FFA7
:1010B000424809F0FBFC444A3B1D92E8030083E8E8
:1010C00003003B1D184608F0BAFF40F2FF1009F07C
:1010D00005F83E4809F0DEFA012301220021042030
:1010E00009F05AFA02220E21012009F03FFB344890
:1010F00009F00AFC0023002240F20F2140F20F20E9
:1011000009F06CFA3248FFF781FB30493148FFF7AC
:101110007DFB2B4B5B6819462F48FFF777FB284B6D
:101120009B6819462D48FFF771FB254B5B7B1946E1
:101130002B48FFF76BFB214B1B7819462948FFF71B
:1011400065FB1E4B1B7A19462748FFF75FFB1B4BBD
:101150005B8819462548FFF759FB184B1B79194640
:101160002348FFF753FB154BDB7919462148FFF75E
:101170004DFB2148FFF74AFB144809F08BFA012187
:10118000012009F0CFFE084B1B68DBB20022194694
:10119000034808F041FF0AF00CF9B5E66C030020A3
:1011A000040400204CC800089C04002054C8000817
:1011B00058C8000811030020140300207C020020FE
:1011C0009002002081170008C8C8000818D0111A22
:1011D00074C80008A0C8000838C7000848C700083D
:1011E00064C7000880C7000894C70008ACC700089F
:1011F000C4C70008DCC70008F0C7000880B59AB073
:1012000000AF07F120034822002118460AF088FCAD
:101210003B1D00221A605A609A60DA601A615A61B6
:101220009A61254B1B6823F4C063234A43F400737F
:101230001360214B1B6803F4C0633B603B680123D0
:101240003B624FF404137B620023BB620223FB6406
:1012500003233B6510237B650623BB654FF40033F6
:10126000FB654FF000537B664FF000733B6607F160
:101270002003184603F0C0F90346002B01D001F00B
:1012800001FA4F237B600323BB600023FB60002334
:101290003B6100237B610023FB613B1D022118465B
:1012A00003F02CFD0346002B01D001F0EBF900BF49
:1012B0006837BD4680BD00BF0004005880B588B0C7
:1012C00000AF78607B68A64A934208D07B68A54A45
:1012D000934204D07B68A44A934240F02982A34BF6
:1012E0001B68002B00F02482A14B1B68012B40F0EF
:1012F000AD81A04B1B68002B40F0A8819E4B1B6862
:10130000012B40F0A3819D4B00221A609C499D480F
:10131000FFF77CFA0023FB610AE0994AFB6913445A
:101320001B7819469848FFF771FAFB690133FB6196
:10133000FB69532BF1D99548FFF768FA904B1B785E
:10134000532B40F059818E4B93F853307E2B40F055
:1013500053818F48FFF75AFA894B9A788D4B1A7050
:10136000874B5A788C4B1A708C4B01221A60894B30
:101370001B7819468248FFF7A3F996218848FFF7A2
:1013800095FC0346874A136085498748FFF73EFA74
:101390000023BB6113E0824ABB6913441978834A76
:1013A000BB6913440A461A70804ABB6913441B7810
:1013B00019467548FFF72AFABB690133BB61794BBF
:1013C0001B68BA699A42E6DB7048FFF71FFA754B53
:1013D0001B6819467648FFF719FA6E4B1B781A46B8
:1013E000002167480AF09CFB962200216C480AF015
:1013F00097FB7048FFF7F0F96F4B00221A70694BAA
:101400001B68DAB26C4B1A726B4B08225A806A4B1B
:1014100004221A71684B18225A71674B00229A7184
:10142000654B0022DA71644BF2225A72624B012240
:101430009A72624B00221A70604B0D225A735F4BF6
:101440004FF496625A605D4B40F6B8329A605B4B3F
:101450000B221A735A4808F05BFD0021002009F0A6
:10146000C3FB504B1B68DBB21946504808F0A2FD85
:10147000514809F01BFB534A07F10C0392E80300A3
:1014800083E8030007F10C03184608F0D8FD40F28A
:10149000FF1008F023FE4C4809F0FCF8012301225C
:1014A0000021042009F078F802220E21012009F021
:1014B0005DF9424809F028FA0023002240F20F218A
:1014C00040F20F2009F08AF84048FFF79FF93E49A3
:1014D0003F48FFF79BF9394B5B6819463D48FFF7DA
:1014E00095F9364B9B6819463B48FFF78FF9334B0C
:1014F0005B7B19463948FFF789F92F4B1B78194652
:101500003748FFF783F92C4B1B7A19463548FFF70C
:101510007DF9294B5B8819463348FFF777F9264B4D
:101520001B7919463148FFF771F9234BDB791946CE
:101530002F48FFF76BF92F48FFF768F9224809F0A9
:10154000A9F80121012009F0EDFC164B1B68DBB264
:1015500000221946154808F05FFD00BFD7E000BF24
:101560004806002020050020B4050020A00400202B
:10157000A404002004000020B00400206803002020
:1015800014030020D0C800084CC8000854C8000844
:1015900000C9000811030020A8040020AC040020AA
:1015A0006C0300209C04002030C9000804040020C3
:1015B00058C8000820A107007C02002090020020EB
:1015C00081170008C8C8000818D0111A74C800088C
:1015D000A0C8000838C7000848C7000864C700084A
:1015E00080C7000894C70008ACC70008C4C700083B
:1015F000DCC70008F0C700084F48FFF707F94F4B5A
:101600001B789AB24FF4FA634D494E4805F039F809
:101610000346002B0BD0494B1B789AB24FF4FA6368
:101620004749494805F02DF80346002B6FD147483C
:10163000FFF7ECF85422002141480AF071FA444BBC
:1016400000221A60434B00221A6060E03C49424885
:10165000FFF7DCF800237B610AE0394A7B69134419
:101660001B7819463D48FFF7D1F87B6901337B6150
:101670007B69532BF1D93A48FFF7C8F8304B1B78F8
:10168000532B1DD12E4B93F853307E2B18D1354858
:10169000FFF7BCF82A4B9A78334B1A70284B5A78CC
:1016A000324B1A70314B1B78B12B05D1304B0222D3
:1016B0001A60304B02221A60254B01221A6027E083
:1016C0002D48FFF7A3F81D4B1B789AB24FF4FA632D
:1016D0001B491C4804F0D5FF0346002B0BD0174BC9
:1016E0001B789AB24FF4FA631549174804F0C9FF02
:1016F0000346002B0CD12148FFF788F85422002123
:101700000F480AF00DFA124B00221A6000E000BFE9
:101710000A4B1B789BB21A4609490A4805F0FCF8A7
:10172000064B1B789BB21A460549074805F0F4F8AA
:1017300000BF2037BD4680BD60C900080100002001
:1017400014030020480600202005002094C900084A
:1017500068030020AC040020C8C900084CC8000879
:1017600054C80008F0C9000811030020A804002094
:10177000040000200800002018CA000844CA00081D
:101780002DE9F04FBDB000AF0346FB84FB8C022B6C
:1017900040F011866422B149B14808F01BFC09F001
:1017A0003AFA0346DBB2AF4A1370AF48FFF72EF8A0
:1017B000002387F8BF30A94B1B781946A848FFF7CC
:1017C00075FA034687F8BF306B467B6097F8BF20F9
:1017D000114639620B46013BC7F8B830CBB2002244
:1017E0001C4615464FF000024FF00003EB0043EAA1
:1017F0005473E200CBB20022984691464FF00002AB
:101800004FF000034FEAC90343EA58734FEAC80296
:101810000B460733DB08DB00ADEB030D6B460033F3
:10182000C7F8B4300023C7F8EC301AE08C4AD7F878
:10183000EC3013441978D7F8B420D7F8EC301344BF
:101840000A461A70D7F8B420D7F8EC3013441B7846
:1018500019468648FEF7DAFFD7F8EC300133C7F8AF
:10186000EC3097F8BF30D7F8EC209A42DEDB8048A6
:10187000FEF7CCFF6422002179480AF051F997F86D
:10188000BF30043B87F8B33097F8B3502B46013B89
:10189000C7F8AC30EBB20022BB61FA614FF0000236
:1018A0004FF00003D7E906894946CB00444643EA96
:1018B00054734146CA00EBB200223B617A614FF09B
:1018C00000024FF00003D7E904894946CB004446A3
:1018D00043EA54734146CA002B460733DB08DB005A
:1018E000ADEB030D6B460033C7F8A8306148FEF737
:1018F0008DFF0023C7F8E8300123C7F8E43020E06B
:10190000D7F8B420D7F8E43013441978D7F8A820D2
:10191000D7F8E83013440A461A70D7F8A820D7F849
:10192000E83013441B7819465048FEF76FFFD7F88C
:10193000E8300133C7F8E830D7F8E4300133C7F8AE
:10194000E43097F8B330D7F8E4209A42D8DD48481D
:10195000FEF75CFF0023A7F8A63097F8B3301946CE
:10196000D7F8A800FEF7CEFF0346A7F8A630B7F8D1
:10197000A6301B0A9BB2DBB287F89430B7F8A630CA
:10198000DBB287F8953097F8BF30033BD7F8B42027
:10199000D35C87F8A53097F8BF30023BD7F8B42066
:1019A000D35C87F8A43097F8943097F8A5209A4232
:1019B00040F0C88497F8953097F8A4209A4240F0F8
:1019C000C1846B461E462C48FEF720FF97F8B320D3
:1019D00007F128031946D7F8A800FFF77AF8C7F8E7
:1019E000A000D7F8A030013BC7F8A030D7F8A0106E
:1019F0002248FEF70BFFD7F8A040631EC7F89C30C3
:101A000022460023BA60FB604FF000024FF0000353
:101A1000D7E902894946CB00C44643EA5C73414694
:101A2000CA002246002392469B464FF000024FF028
:101A300000034FEACB0343EA5A734FEACA02234634
:101A40000733DB08DB00ADEB030D6B460033C7F853
:101A500098300023C7F8E03024E000BF00000020E9
:101A6000AC0200201003002070CA00084CC8000817
:101A700054C8000890CA0008ACCA0008D0CA0008C0
:101A800007F12802D7F8E03013441978D7F89820E6
:101A9000D7F8E03013440A461A70D7F8E030013323
:101AA000C7F8E030D7F8E020D7F8A0309A42E7DB5B
:101AB000944B1B68012B40F04381D7F898309B7CF6
:101AC000DF2B09D1D7F89830DB7CAB2B04D1D7F8CA
:101AD00098301B7DD12B0ED0D7F898309B7C532BA0
:101AE0002DD1D7F89830DB7C022B28D1D7F898304D
:101AF0001B7D532B23D18448FEF788FE834B532252
:101B00001A70824BAC225A70804B04229A707F4B21
:101B10000222DA707D4BFC221A717C4BEE225A7144
:101B20007A4B9A787A4B1A707A4B01221A602346C4
:101B30001A460021D7F8980009F0F2FFE4E3D7F83D
:101B400098309B7CFD2B40F08380D7F89830DB7C6D
:101B5000BA2B7DD1D7F898301B7DD02B78D16E4B26
:101B600002221A606B4B00221A606C4B00221A6032
:101B70006B4B00221A606B48FEF748FE634B532202
:101B80001A70624BAC225A70604B04229A705F4B01
:101B90000222DA705D4B00221A715C4BDD225A7111
:101BA0005A4B9A785A4B1A70A2B24FF4FA63D7F88C
:101BB00098105D4804F065FD0346002B0AD0A2B2E0
:101BC0004FF4FA63D7F89810584804F05AFD0346CA
:101BD000002B39D00023C7F8DC300EE0D7F898206E
:101BE000D7F8DC3013441B7819465148FEF70EFE37
:101BF000D7F8DC300133C7F8DC30D7F8DC20D7F871
:101C0000A0309A42EADB23461A460021D7F8980012
:101C100009F086FF64220021464809F081FF3B6AF3
:101C20001A460021D7F8B40009F07AFF2B461A466D
:101C30000021D7F8A80009F073FF07F128036422F8
:101C40000021184609F06CFF324B01221A605BE359
:101C5000D7F8A0103848FEF7D9FDA2B24FF4FA63C6
:101C6000D7F89810304804F00CFD0346002B0BD039
:101C7000A2B24FF4FA63D7F898102C4804F001FD93
:101C80000346002B00F040830023C7F8D8300EE055
:101C9000D7F89820D7F8D83013441B781946244831
:101CA000FEF7B4FDD7F8D8300133C7F8D830D7F8ED
:101CB000D820D7F8A0309A42EADB23461A46002102
:101CC000D7F8980009F02CFF64220021194809F088
:101CD00027FF3B6A1A460021D7F8B40009F020FF1D
:101CE0002B461A460021D7F8A80009F019FF07F182
:101CF000280364220021184609F012FF0F48FEF75E
:101D000085FD01E308000020F0CA0008140300204C
:101D1000110300206803002004000020A404002018
:101D2000AC04002014CB0008480600202005002049
:101D30004CC80008AC02002038CB000860CB00087B
:101D4000BA4B1B68002B40F0DF82B94B1B68012B9C
:101D500040F01681D7F898309B7CFD2B40F08380B3
:101D6000D7F89830DB7CBA2B7DD1D7F898301B7D23
:101D7000D02B78D1AF4B02221A60AF4B00221A60F1
:101D8000AB4B00221A60AD4B00221A60AC48FEF744
:101D90003DFDAC4B53221A70AA4BAC225A70A94B92
:101DA00004229A70A74B0222DA70A64B00221A7105
:101DB000A44BDD225A71A34B9A78A34B1A70A2B29E
:101DC0004FF4FA63D7F89810A04804F05AFC034681
:101DD000002B0AD0A2B24FF4FA63D7F898109C48AF
:101DE00004F04FFC0346002B39D00023C7F8D43051
:101DF0000EE0D7F89820D7F8D43013441B78194652
:101E00009448FEF703FDD7F8D4300133C7F8D43037
:101E1000D7F8D420D7F8A0309A42EADB23461A46F6
:101E20000021D7F8980009F07BFE642200218A483F
:101E300009F076FE3B6A1A460021D7F8B40009F093
:101E40006FFE2B461A460021D7F8A80009F068FE5D
:101E500007F1280364220021184609F061FE764B41
:101E600001221A6050E2D7F898309B7C532B63D143
:101E7000D7F89830DB7C022B5ED1D7F898301B7DE9
:101E8000532B59D1D7F8A0107448FEF7BFFCA2B26B
:101E90004FF4FA63D7F898106C4804F0F2FB03464D
:101EA000002B0BD0A2B24FF4FA63D7F89810684811
:101EB00004F0E7FB0346002B00F025820023C7F85F
:101EC000D0300EE0D7F89820D7F8D03013441B78E4
:101ED00019466048FEF79AFCD7F8D0300133C7F8AE
:101EE000D030D7F8D020D7F8A0309A42EADB23468A
:101EF0001A460021D7F8980009F012FE642200214A
:101F0000554809F00DFE3B6A1A460021D7F8B40087
:101F100009F006FE2B461A460021D7F8A80009F062
:101F2000FFFD07F1280364220021184609F0F8FD9F
:101F30004B48FEF76BFCE6E14A48FEF767FC414B75
:101F400053221A703F4BAC225A703E4B04229A70B7
:101F50003C4B0222DA703B4BFC221A71394BEE22C9
:101F60005A71384B9A78384B1A70334B01221A60E9
:101F700023461A460021D7F8980009F0D1FDC3E1A5
:101F80002B4B1B68002B40F0BF81D7F898309B7C0F
:101F9000FD2B40F0A380D7F89830DB7CBA2B40F0C3
:101FA0009D80D7F898301B7DD02B40F09780214B37
:101FB00002221A60204B00221A601D4B00221A6078
:101FC0001E4B00221A601E48FEF720FC1D4B5322B8
:101FD0001A701C4BAC225A701A4B04229A70194B7F
:101FE0000222DA70174B00221A71164BDD225A7149
:101FF000144B9A78144B1A70A2B24FF4FA63D7F8C4
:102000009810124804F03DFB0346002B0AD0A2B200
:102010004FF4FA63D7F898100D4804F032FB0346EA
:10202000002B57D00023C7F8CC302CE0080000204C
:10203000A40400200400002068030020AC04002059
:1020400014CB0008140300201103002048060020D0
:10205000200500204CC80008AC0200207CCB000802
:10206000A4CB0008F0CA0008D7F89820D7F8CC30E5
:1020700013441B781946A548FEF7C8FBD7F8CC30A7
:102080000133C7F8CC30D7F8CC20D7F8A0309A422B
:10209000EADB23461A460021D7F8980009F040FDF4
:1020A000642200219A4809F03BFD3B6A1A46002150
:1020B000D7F8B40009F034FD2B461A460021D7F8B2
:1020C000A80009F02DFD07F128036422002118461D
:1020D00009F026FD8F4B01221A6015E1D7F89830E0
:1020E0009B7CDF2B40F08380D7F89830DB7CAB2BD8
:1020F0007DD1D7F898301B7DD12B78D1864B00222B
:102100001A60844B00221A60844B01221A60844BAF
:1021100001221A608348FEF779FB834B53221A7021
:10212000814BAC225A70804B04229A707E4B022263
:10213000DA707D4B01221A717B4BDD225A717A4B8A
:102140009A787A4B1A70A2B24FF4FA63D7F89810C3
:10215000774804F096FA0346002B0AD0A2B24FF457
:10216000FA63D7F89810734804F08BFA0346002BF3
:1021700039D00023C7F8C8300EE0D7F89820D7F838
:10218000C83013441B7819466048FEF73FFBD7F868
:10219000C8300133C7F8C830D7F8C820D7F8A03006
:1021A0009A42EADB23461A460021D7F8980009F044
:1021B000B7FC64220021564809F0B2FC3B6A1A467B
:1021C0000021D7F8B40009F0ABFC2B461A460021D9
:1021D000D7F8A80009F0A4FC07F128036422002125
:1021E000184609F09DFC4B4B01221A608CE0D7F891
:1021F00098309B7C532B2DD1D7F89830DB7C022B69
:1022000028D1D7F898301B7D532B23D14A48FEF7AD
:10221000FDFA454B53221A70434BAC225A70424B85
:1022200004229A70404B0222DA703F4BFC221A7152
:102230003D4BEE225A713C4B9A783C4B1A70354B11
:1022400001221A6023461A460021D7F8980009F0A7
:1022500067FC59E0D7F8A0103848FEF7D7FAA2B2C9
:102260004FF4FA63D7F89810314804F00AFA03469D
:10227000002B0AD0A2B24FF4FA63D7F898102D4879
:1022800004F0FFF90346002B3ED00023C7F8C4300A
:102290000EE0D7F89820D7F8C43013441B781946BD
:1022A0001A48FEF7B3FAD7F8C4300133C7F8C43080
:1022B000D7F8C420D7F8A0309A42EADB23461A4662
:1022C0000021D7F8980009F02BFC64220021104867
:1022D00009F026FC3B6A1A460021D7F8B40009F041
:1022E0001FFC2B461A460021D7F8A80009F018FC5D
:1022F00007F1280364220021184609F011FC104858
:10230000FEF784FA00E000BFB54637E04CC800088D
:10231000AC0200206803002004000020A404002078
:10232000B0040020CCCB00081403002011030020CF
:102330004806002020050020F0CA000838CB00081D
:1023400060CB0008AB48FEF761FAAB4B53221A7022
:10235000A94BAC225A70A84B04229A70A64B0222B9
:10236000DA70A54B01221A71A34BEE225A71A24BCF
:102370009A78A24B1A70A24B01221A60D7F804D0A7
:10238000A04808F087F90021012008F0CBFD6FF08C
:102390007F4007F0ABFF9C4B1B789BB21A469649D7
:1023A0009A4804F0B9FA984B1B789BB21A469249A6
:1023B000974804F0B1FAFB8C012B40F01681904B4A
:1023C00000221A609348FEF721FA0023C7F8C030B4
:1023D0000DE0914AD7F8C03013441B7819468F4856
:1023E000FEF714FAD7F8C0300133C7F8C0308C4B71
:1023F0001B68D7F8C0209A42EBDB8A48FEF706FA42
:1024000096220021844809F08BFB874B1B78B12B67
:1024100003D0854B1B78B22B0CD1844B1B68013B3E
:10242000824A1360824B1B68013B814A13607E4BDA
:1024300000221A707F4B1B68002B0ED07B4B0222B0
:102440001A606F4B00221A607B4B00221A60794B96
:1024500000221A60794B00221A60744B1B68002B13
:1024600009D1674B00221A60734B01221A6074482D
:10247000FEF7CCF902E0704B00221A607148FEF7BB
:10248000ABF9714B00221A706F4B64221A726E4BBB
:1024900008225A806C4B04221A716B4B18225A7115
:1024A000694B00229A71684B0022DA71664BF22266
:1024B0005A72654B01229A72644B00221A70634B68
:1024C0000D225A73614B4FF496625A605F4B40F68F
:1024D000B8329A605D4B0B221A735D4807F018FD05
:1024E0000021002008F080FB574808F0DFFA594A25
:1024F00007F18C0392E8030083E8030007F18C03E3
:10250000184607F09CFD40F2FF1007F0E7FD3D483C
:1025100008F0C0F8012301220021042008F03CF853
:1025200002220E21012008F021F9484808F0ECF9B8
:102530000023002240F20F2140F20F2008F04EF855
:102540004548FEF763F92F494448FEF75FF93F4BD2
:102550005B6819464248FEF759F93C4B9B6819469F
:102560004048FEF753F9394B5B7B19463E48FEF76E
:102570004DF9354B1B7819463C48FEF747F9324B6D
:102580001B7A19463A48FEF741F92F4B5B881946EA
:102590003848FEF73BF92C4B1B7919463648FEF7B5
:1025A00035F9294BDB7919463448FEF72FF93448C1
:1025B000FEF72CF9134808F06DF80021012008F00F
:1025C000B1FC6FF07F4007F091FE0F4B1B789BB280
:1025D0001A4609490D4804F09FF90B4B1B789BB232
:1025E0001A4605490A4804F097F900BFF437BD467A
:1025F000BDE8F08FE4CB0008140300201103002095
:10260000680300206859F2190100002048060020E4
:102610002005002014CC0008040400204CC8000849
:102620009C04002054C80008A804002004000020D6
:1026300008000020AC040020A4040020B004002006
:1026400040CC000820A107007C020020900200205E
:1026500081170008C8C80008E4C6000810C70008B1
:1026600038C7000848C7000864C7000880C70008CA
:1026700094C70008ACC70008C4C70008DCC700083E
:10268000F0C7000880B400AF72B600BFFEE70000DC
:1026900080B586B000AF072200219F4809F040FABC
:1026A0009E4B00221A7041F6583307229A499C48E3
:1026B00004F06DF80346002B0AD041F65833072288
:1026C0009549984804F063F80346002B40F01181C7
:1026D0009548FEF79BF800237B610AE08E4A7B69F0
:1026E00013441B7819469148FEF790F87B69013333
:1026F0007B617B69062BF1DD8D48FEF787F8864B01
:102700001B78002B79D1844B5B78532B3BD1824BC8
:102710009B797E2B37D18748FEF778F84FF4FA6320
:1027200007227D497E4803F0ACFF0346002B0AD008
:102730004FF4FA63072278497A4803F0A2FF034670
:10274000002B40F0D2807C48FEF760F800233B610C
:102750000AE0714A3B6913441B7819467348FEF737
:1027600055F83B6901333B613B69062BF1DD70484D
:10277000FEF74CF8694B01221A70072200216648C7
:1027800009F0CEF9B1E06D48FEF740F84FF4FA6376
:1027900007226149624803F074FF0346002B0AD008
:1027A00041F6583307225C495E4803F06AFF03464E
:1027B000002B40F0AC806248FEF728F80023FB6055
:1027C0000AE0554AFB6813441B7819465748FEF740
:1027D0001DF8FB680133FB60FB68062BF1DD5448F4
:1027E000FEF714F8072200214B4809F099F94B4BEA
:1027F00000221A70FFF74CFF89E0474B1B78532BE0
:102800003AD1454B5B797E2B36D14A48FDF7FEFF26
:102810004FF4FA6307224049414803F032FF034670
:10282000002B09D04FF4FA6307223B493D4803F0DF
:1028300028FF0346002B5AD13F48FDF7E7FF00234E
:10284000BB600AE0344ABB6813441B78194637481A
:10285000FDF7DCFFBB680133BB60BB68062BF1DD15
:102860003348FDF7D3FF2D4B01221A7007220021B8
:10287000294809F055F93AE03048FDF7C7FF4FF411
:10288000FA6307222449264803F0FBFE0346002B87
:1028900009D041F6583307221F49224803F0F1FEC0
:1028A0000346002B33D12648FDF7B0FF00237B60A1
:1028B0000AE0194A7B6813441B7819461B48FDF748
:1028C000A5FF7B6801337B607B68062BF1DD184830
:1028D000FDF79CFF072200210F4809F021F90F4B5B
:1028E00000221A70FFF7D4FE11E000BF0FE000BF16
:1028F0000DE00A4B00221A701248FDF787FF0722ED
:102900000021054809F00CF9FFF7C2FE00E000BF06
:1029100000BF1837BD4680BDB4040020A0040020CD
:10292000480600202005002078CC0008A8CC00082C
:10293000B0CC0008B4CC0008DCCC000808CD0008FE
:1029400034CD000864CD000880B400AF00BFBD46A0
:1029500080BC704780B400AFFEE780B400AFFEE7F4
:1029600080B400AFFEE780B400AFFEE780B400AFF4
:10297000FEE780B400AF00BFBD4680BC704780B4A6
:1029800000AF00BFBD4680BC704780B400AF00BF41
:10299000BD4680BC704780B500AF00F043FD00BF6E
:1029A00080BD000080B500AF024801F03DF800BFD7
:1029B00080BD00BFDC06002080B500AF024801F0FA
:1029C00033F800BF80BD00BF3C07002080B500AFDA
:1029D000024801F029F800BF80BD00BF9C0700201D
:1029E00080B500AF024801F01FF800BF80BD00BFF6
:1029F000FC07002080B500AF024803F0D9FF00BFFC
:102A000080BD00BFB405002080B500AF024803F0D0
:102A1000CFFF00BF80BD00BF4806002080B500AFDB
:102A2000024803F0C5FF00BF80BD00BF20050020A5
:102A300080B500AF024803F057F900BF80BD00BF6A
:102A4000BC04002080B485B000AF78604FF0B04384
:102A50005A6E4FF0B0417B6813434B664FF0B04362
:102A60005A6E7B681340FB60FB6800BF1437BD469D
:102A700080BC704780B500AF064B10221A60054835
:102A800002F0B0FE0346002B01D0FFF7FBFD00BFB4
:102A900080BD00BFBC04002080B582B000AF78606C
:102AA0000120FFF7CFFF00220021322000F0A3FD1C
:102AB000322000F0BAFD00BF0837BD4680BD80B4AB
:102AC00000AF00BFBD4680BC7047000080B582B03B
:102AD00000AF00237B60064B1B78002B02D000F078
:102AE00008F978607B6818460837BD4680BD00BF8E
:102AF000C804002080B582B000AF78607B681846BB
:102B000000F025F900BF0837BD4680BD80B586B00E
:102B100000AF7860144A154BD31A7B617B693B6127
:102B2000134B1B68002B02D1114B124A1A60104B39
:102B30001A687B6813443A699A4207D208F0F8FF92
:102B400003460C221A604FF0FF3309E0084B1B6864
:102B5000FB60074B1A687B681344054A1360FB68E7
:102B600018461837BD4680BD000001200004000053
:102B7000CC040020680B002080B400AF00BFBD462D
:102B800080BC704780B485B000AF78604FF0B04330
:102B90009A6D4FF0B0417B6813438B654FF0B043A3
:102BA0009A6D7B681340FB60FB6800BF1437BD461D
:102BB00080BC704780B588B000AF07F110030022D9
:102BC0001A605A609A60DA603B1D00221A605A60EF
:102BD0009A601D4B4FF080421A601B4B2F225A60A7
:102BE000194B00229A60184B184ADA60164B0022E3
:102BF0001A61154B00229A61134803F013FA034639
:102C0000002B01D0FFF73EFD4FF480533B6107F1ED
:102C1000100319460C4803F0A1FA0346002B01D01B
:102C2000FFF730FD00237B600023FB603B1D19464E
:102C3000054803F057FC0346002B01D0FFF722FDA7
:102C400000BF2037BD4680BDD004002040420F00A9
:102C500080B582B000AF78607B681B68B3F1804FAD
:102C600002D10120FFF78EFF00BF0837BD4680BDAF
:102C700080B483B000AF0023FB71FB7918460C379A
:102C8000BD4680BC704780B485B000AF786000233B
:102C9000FB73FB7B18461437BD4680BC704780B47D
:102CA00083B000AF0023FB71FB7918460C37BD469B
:102CB00080BC704780B400AF024B1B681846BD460D
:102CC00080BC70471C05002080B400AF024B1B681D
:102CD0001846BD4680BC70471C05002080B483B0F8
:102CE00000AF00237B607B6818460C37BD4680BC74
:102CF000704780B483B000AF00237B607B681846C8
:102D00000C37BD4680BC704780B483B000AF002351
:102D10007B607B6818460C37BD4680BC704780B42A
:102D200085B000AF78600023FB60FB68184614375D
:102D3000BD4680BC704780B485B000AF786000238A
:102D4000FB60FB6818461437BD4680BC704780B4F2
:102D500083B000AF786000BF0C37BD4680BC7047C1
:102D600080B485B000AF78604FF0B043DA6C4FF0BC
:102D7000B0417B681343CB644FF0B043DA6C7B689F
:102D80001340FB60FB6800BF1437BD4680BC704732
:102D900080B485B000AF78604FF0B0439A6D4FF0CB
:102DA000B0417B6813438B654FF0B0439A6D7B68ED
:102DB0001340FB60FB6800BF1437BD4680BC704702
:102DC00080B485B000AF78604FF0B043DA6D4FF05B
:102DD000B0417B681343CB654FF0B043DA6D7B683D
:102DE0001340FB60FB6800BF1437BD4680BC7047D2
:102DF00080B485B000AF78604FF0B0431A6E4FF0EA
:102E0000B0417B6813430B664FF0B0431A6E7B688A
:102E10001340FB60FB6800BF1437BD4680BC7047A1
:102E200080B500AF224B234A1A60214B224A5A60D8
:102E30001F4B00229A601E4B0022DA601C4B0022BE
:102E40001A611B4B0C225A61194B00229A61184BD4
:102E500000221A62164B00225A62154B00229A6217
:102E6000134B00225A66124803F0BBFB0346002BAB
:102E700001D0FFF707FC00210D4804F0E3FF0346F3
:102E8000002B01D0FFF7FEFB0021094805F018F8E0
:102E90000346002B01D0FFF7F5FB054804F09AFF2D
:102EA0000346002B01D0FFF7EDFB00BF80BD00BF44
:102EB00020050020008000402433030080B500AFCF
:102EC000224B234A1A60214B4FF4E1325A601F4BC8
:102ED00000229A601D4B0022DA601C4B00221A610E
:102EE0001A4B0C225A61194B00229A61174B00228F
:102EF000DA61164B00221A62144B00225A62134BFD
:102F000000229A62114803F06CFB0346002B01D0AB
:102F1000FFF7B8FB00210D4804F094FF0346002B97
:102F200001D0FFF7AFFB0021084804F0C9FF0346BA
:102F3000002B01D0FFF7A6FB044804F04BFF03462B
:102F4000002B01D0FFF79EFB00BF80BDB405002021
:102F50000038014080B500AF224B234A1A60214B54
:102F60004FF4E1325A601F4B00229A601D4B002241
:102F7000DA601C4B00221A611A4B0C225A61194B61
:102F800000229A61174B0022DA61164B00221A6266
:102F9000144B00225A62134B00229A62114803F02C
:102FA00020FB0346002B01D0FFF76CFB00210D48EE
:102FB00004F048FF0346002B01D0FFF763FB00211C
:102FC000084804F07DFF0346002B01D0FFF75AFBB1
:102FD000044804F0FFFE0346002B01D0FFF752FB2C
:102FE00000BF80BD480600200044004080B596B078
:102FF00000AF786007F1440300221A605A609A60BB
:10300000DA601A6107F10C0338220021184608F033
:1030100087FD7B681B68664A934240F092802023BC
:10302000FB600023FB6107F10C03184602F026FA4F
:103030000346002B01D0FFF725FB0120FFF7C0FE60
:103040000420FFF78DFE03237B640223BB6400236F
:10305000FB6400233B6508237B6507F144031946A5
:10306000544800F07FFE544B544A1A60524B1522CC
:103070005A60514B00229A604F4B0022DA604E4B4F
:1030800080221A614C4B00225A614B4B00229A61FC
:10309000494B0022DA61484B00221A62464800F090
:1030A000DFFA0346002B01D0FFF7ECFA102142486B
:1030B00000F080FD0346002B01D0FFF7E3FA7B68A8
:1030C0003D4AC3F880203C4A7B6893623C4B3D4AB2
:1030D0001A603B4B16225A60394B10229A60384BCB
:1030E0000022DA60364B80221A61354B00225A6189
:1030F000334B00229A61324B0022DA61304B0022BE
:103100001A622F4800F0ACFA0346002B01D0FFF7FB
:10311000B9FA10212A4800F04DFD0346002B01D0DA
:10312000FFF7B0FA7B68264ADA67254A7B68936224
:1031300000220021262000F05EFA262000F075FA19
:10314000DEE07B681B68204A93423FD10123FB608D
:103150004FF440333B6107F10C03184602F08EF93F
:103160000346002B01D0FFF78DFA4FF48040FFF7A4
:103170003FFE0120FFF7F4FD4FF4C0637B640223A0
:10318000BB640023FB6400233B6507237B6507F1D9
:10319000440319464FF0904000F0E4FD0022002166
:1031A000242000F028FA242000F03FFAA8E000BF15
:1031B0000080004000080048DC06002008000240B3
:1031C0003C0700201C000240003801407B681B685F
:1031D0004D4A934240F094800223FB604FF4402319
:1031E0007B6107F10C03184602F048F90346002BF7
:1031F00001D0FFF747FA4FF40030FFF7C9FD012077
:10320000FFF7AEFD0C237B640223BB640023FB6449
:1032100000233B6507237B6507F1440319464FF004
:10322000904000F09FFD394B394A1A60374B13220A
:103230005A60364B00229A60344B0022DA60334BDE
:1032400080221A61314B00225A61304B00229A6170
:103250002E4B0022DA612D4B00221A622B4800F01F
:10326000FFF90346002B01D0FFF70CFA1021274885
:1032700000F0A0FC0346002B01D0FFF703FA7B68A7
:10328000224AC3F88020214A7B689362214B224A5C
:103290001A60204B14225A601E4B10229A601D4B5C
:1032A0000022DA601B4B80221A611A4B00225A61FD
:1032B000184B00229A61174B0022DA61154B00224D
:1032C0001A62144800F0CCF90346002B01D0FFF736
:1032D000D9F910210F4800F06DFC0346002B01D0F6
:1032E000FFF7D0F97B680B4ADA670A4A7B6893627A
:1032F00000220021252000F07EF9252000F095F91C
:1033000000BF5837BD4680BD004400409C070020E8
:1033100030000240FC070020440002400D48854672
:10332000FFF72AFC0C480D490D4A002302E0D4584F
:10333000C4500433C4188C42F9D30A4A0A4C0023FF
:1033400001E013600432A242FBD308F0F7FBFDF763
:10335000E3FCFEE7000001200000002068000020E0
:1033600050D0000868000020680B0020FEE7000035
:1033700080B582B000AF0023FB71032000F030F96C
:1033800001F09EFE0346094A1360002000F010F889
:103390000346002B02D00123FB7101E0FFF7D4FAB2
:1033A000FB7918460837BD4680BD00BF0C000020E1
:1033B00080B584B000AF78600023FB73174B1B7897
:1033C000002B24D001F07CFE0246144B1B781946DA
:1033D0004FF47A73B3FBF1F3B2FBF3F3184600F04A
:1033E00032F90346002B0FD17B680F2B09D800223E
:1033F00079684FF0FF3000F0FEF8094A7B681360EF
:1034000007E00123FB7304E00123FB7301E00123C8
:10341000FB73FB7B18461037BD4680BD14000020AF
:103420001000002080B400AF054B1B781A46054BF6
:103430001B681344034A136000BFBD4680BC70473D
:10344000140000205C08002080B485B000AF7860D4
:103450007B6803F00703FB600C4BDB68BB60BA685A
:103460004FF6FF031340BB60FB681A02BB681343AF
:1034700043F0BF6343F40033BB60044ABB68D360CE
:1034800000BF1437BD4680BC704700BF00ED00E0B0
:1034900080B400AF044BDB681B0A03F00703184637
:1034A000BD4680BC704700BF00ED00E080B483B033
:1034B00000AF0346FB7197F90730002B0BDBFB795C
:1034C00003F01F02064997F907305B09012000FA53
:1034D00002F241F8232000BF0C37BD4680BC704784
:1034E00000E100E080B483B000AF03463960FB71B7
:1034F00097F90730002B0ADB3B68DAB20C4997F9E1
:1035000007301201D2B20B4483F800230AE03B6873
:10351000DAB20849FB7903F00F03043B1201D2B27F
:103520000B441A7600BF0C37BD4680BC704700BF05
:1035300000E100E000ED00E080B489B000AFF86089
:10354000B9607A60FB6803F00703FB61FB69C3F1B4
:103550000703042B28BF0423BB61FB690433062B3C
:1035600002D9FB69033B00E000237B614FF0FF328F
:10357000BB6902FA03F3DA43BB681A407B699A40DD
:103580004FF0FF317B6901FA03F3D9437B680B40AD
:10359000134318462437BD4680BC704780B582B0BF
:1035A00000AF78607B68013BB3F1807F01D30123DA
:1035B0000FE00A4A7B68013B53600F214FF0FF3058
:1035C000FFF790FF054B00229A60044B07221A6018
:1035D000002318460837BD4680BD00BF10E000E05C
:1035E00080B582B000AF78607868FFF72DFF00BF2C
:1035F0000837BD4680BD80B586B000AF0346B960D0
:103600007A60FB73FFF744FF78617A68B96878697C
:10361000FFF792FF024697F90F3011461846FFF761
:1036200061FF00BF1837BD4680BD80B582B000AFD6
:103630000346FB7197F907301846FFF737FF00BFC5
:103640000837BD4680BD80B582B000AF786078682D
:10365000FFF7A4FF034618460837BD4680BD0000AB
:1036600080B582B000AF78607B68002B01D1012368
:103670008EE07B681B681A46474B9A420FD87B68DE
:103680001B681A46454B1344454AA2FB03231B09FA
:103690009A007B685A647B68424A1A640EE07B6831
:1036A0001B681A46404B13443D4AA2FB03231B09E7
:1036B0009A007B685A647B683C4A1A647B680222E1
:1036C00083F825207B681B681B687A68126823F4DE
:1036D000FF4323F0700313607B681B6819687B68E5
:1036E0009A687B68DB681A437B681B691A437B68AE
:1036F0005B691A437B689B691A437B68DB691A43E1
:103700007B681B6A1A437B681B680A431A607868E7
:1037100000F0BCFA7B689B68B3F5804F02D17B68F0
:1037200000225A607B685A687B689B6C02F07F02BB
:103730001A607B68DB6C7A68126D5A607B685B6824
:10374000002B10D07B685B68042B0CD8786800F0E5
:10375000E5FA7B685B6D00221A607B689B6D7A6876
:10376000D26D5A6008E07B6800225A657B680022AF
:103770009A657B680022DA657B680022DA637B68E1
:10378000012283F825207B68002283F8242000236F
:1037900018460837BD4680BD07040240F8FFFDBF4C
:1037A000CDCCCCCC00000240F8FBFDBF00040240B1
:1037B00080B586B000AFF860B9607A603B600023E6
:1037C000FB75FB6893F82430012B01D1022369E0DB
:1037D000FB68012283F82420FB6893F82530DBB2D4
:1037E000012B55D1FB68022283F82520FB680022BB
:1037F000DA63FB681B681A68FB681B6822F0010229
:103800001A603B687A68B968F86800F002FAFB68E9
:103810001B6B002B08D0FB681B681A68FB681B68D1
:1038200042F00E021A600FE0FB681B681A68FB6822
:103830001B6822F004021A60FB681B681A68FB68A8
:103840001B6842F00A021A60FB689B6C1B6803F459
:103850008033002B07D0FB689B6C1A68FB689B6C5D
:1038600042F480721A60FB685B6D002B07D0FB6826
:103870005B6D1A68FB685B6D42F480721A60FB68CE
:103880001B681A68FB681B6842F001021A6008E0B6
:10389000FB688022DA63FB68002283F8242001237E
:1038A000FB75FB7D18461837BD4680BD80B483B0DC
:1038B00000AF78607B68002B01D101234FE07B686B
:1038C00093F82530DBB2022B08D07B680422DA6340
:1038D0007B68002283F82420012340E07B681B687A
:1038E0001A687B681B6822F00E021A607B689B6C6A
:1038F0001A687B689B6C22F480721A607B681B6874
:103900001A687B681B6822F001021A607B685B6C96
:1039100003F01C027B681B6C012101FA02F25A6061
:103920007B68DB6C7A68126D5A607B685B6D002B7C
:103930000CD07B685B6D1A687B685B6D22F48072CB
:103940001A607B689B6D7A68D26D5A607B68012231
:1039500083F825207B68002283F824200023184662
:103960000C37BD4680BC704780B584B000AF78602E
:103970000023FB737B6893F82530DBB2022B05D064
:103980007B680422DA630123FB7347E07B681B68D2
:103990001A687B681B6822F00E021A607B681B683D
:1039A0001A687B681B6822F001021A607B689B6CB6
:1039B0001A687B689B6C22F480721A607B685B6C6F
:1039C00003F01C027B681B6C012101FA02F25A60B1
:1039D0007B68DB6C7A68126D5A607B685B6D002BCC
:1039E0000CD07B685B6D1A687B685B6D22F480721B
:1039F0001A607B689B6D7A68D26D5A607B68012281
:103A000083F825207B68002283F824207B689B6B49
:103A1000002B03D07B689B6B78689847FB7B18462C
:103A20001037BD4680BD000080B584B000AF78601F
:103A30007B681B6C1B68FB607B681B681B68BB603A
:103A40007B685B6C03F01C0304229A40FB68134004
:103A5000002B27D0BB6803F00403002B22D07B6827
:103A60001B681B6803F02003002B07D17B681B68D1
:103A70001A687B681B6822F004021A607B685B6C22
:103A800003F01C027B681B6C042101FA02F25A60ED
:103A90007B681B6B002B00F081807B681B6B786858
:103AA00098477BE07B685B6C03F01C0302229A4022
:103AB000FB681340002B3DD0BB6803F00203002BD2
:103AC00038D07B681B681B6803F02003002B0BD1E8
:103AD0007B681B681A687B681B6822F00A021A6000
:103AE0007B68012283F825207B681B681A462E4BD1
:103AF0009A4209D97B685B6C03F01C032B4A0221B4
:103B000001FA03F3536008E07B685B6C03F01C036D
:103B1000274A022101FA03F353607B68002283F8ED
:103B200024207B68DB6A002B38D07B68DB6A7868EE
:103B3000984733E07B685B6C03F01C0308229A40D3
:103B4000FB681340002B2AD0BB6803F00803002B4E
:103B500025D07B681B681A687B681B6822F00E0200
:103B60001A607B685B6C03F01C027B681B6C012194
:103B700001FA02F25A607B680122DA637B68012253
:103B800083F825207B68002283F824207B685B6B08
:103B9000002B04D07B685B6B7868984700BF00BF40
:103BA0001037BD4680BD00BF8000024000040240C7
:103BB0000000024080B485B000AF78603960002317
:103BC000FB727B68002B03D10123FB72FB7A1BE0A5
:103BD0007B681B681B68FB603B6803F01003002BCD
:103BE0000DD03B6803F48013002B04D0FB6843F432
:103BF0008013FB6003E0FB6823F48013FB607B68A9
:103C00001B68FA681A60FB7A18461437BD4680BCF8
:103C1000704780B485B000AFF860B9607A603B60EF
:103C2000FB68DB6CFA68126D5A60FB685B6D002BF9
:103C300004D0FB689B6DFA68D26D5A60FB685B6CC0
:103C400003F01C02FB681B6C012101FA02F25A60AE
:103C5000FB681B683A685A60FB689B68102B08D1A8
:103C6000FB681B687A689A60FB681B68BA68DA6050
:103C700007E0FB681B68BA689A60FB681B687A6893
:103C8000DA6000BF1437BD4680BC704780B485B091
:103C900000AF78607B681B681A461C4B9A4213D8A9
:103CA0007B685B6C9B089B0003F1804303F5023348
:103CB0007A6893647B681B68DBB2083B144AA2FBFA
:103CC00003231B09FB6011E07B685B6C9B089A0077
:103CD000104B13447A6893647B681B68DBB2083B23
:103CE0000B4AA2FB03231B090733FB607B680A4ACC
:103CF000DA64FB6803F01F0301229A407B681A65AF
:103D000000BF1437BD4680BC704700BF07040240A7
:103D1000CDCCCCCC1C0802408008024080B485B0D9
:103D200000AF78607B685B6803F07F03FB60FA6834
:103D30000A4B13449B001A467B685A657B68084A05
:103D40009A65FB68013B03F0030301229A407B68FC
:103D5000DA6500BF1437BD4680BC70473F82001053
:103D60004009024080B487B000AF7860396000231A
:103D70007B6140E13B681A6801217B6901FA03F32A
:103D80001340FB60FB68002B00F032813B685B68EE
:103D900003F00303012B05D03B685B6803F00303CA
:103DA000022B30D17B689B683B617B695B000322FF
:103DB00002FA03F3DB433A6913403B613B68DA687C
:103DC0007B695B0002FA03F33A6913433B617B684A
:103DD0003A699A607B685B683B6101227B6902FA01
:103DE00003F3DB433A6913403B613B685B681B09A3
:103DF00003F001027B6902FA03F33A6913433B6162
:103E00007B683A695A603B685B6803F00303032BE5
:103E100017D07B68DB683B617B695B00032202FA99
:103E200003F3DB433A6913403B613B689A687B6963
:103E30005B0002FA03F33A6913433B617B683A691A
:103E4000DA603B685B6803F00303022B23D17B69D4
:103E5000DA087B68083253F822303B617B6903F053
:103E600007039B000F2202FA03F3DB433A69134076
:103E70003B613B681A697B6903F007039B0002FA08
:103E800003F33A6913433B617B69DA087B680832C4
:103E9000396943F822107B681B683B617B695B00D2
:103EA000032202FA03F3DB433A6913403B613B68A8
:103EB0005B6803F003027B695B0002FA03F33A6973
:103EC00013433B617B683A691A603B685B6803F4A3
:103ED0004033002B00F08C804E4A7B699B080233F4
:103EE00052F823303B617B6903F003039B000722F8
:103EF00002FA03F3DB433A6913403B617B68B3F199
:103F0000904F0DD07B68444A934207D07B68434A68
:103F1000934201D1022304E0072302E0012300E0E1
:103F200000237A6902F00302920093403A69134336
:103F30003B6138497B699B0802333A6941F8232089
:103F4000374B1B683B61FB68DB433A6913403B61BD
:103F50003B685B6803F48013002B03D03A69FB686D
:103F600013433B612E4A3B6913602D4B5B683B61F9
:103F7000FB68DB433A6913403B613B685B6803F4D1
:103F80000013002B03D03A69FB6813433B61244ABA
:103F90003B695360224BD3F880303B61FB68DB43C5
:103FA0003A6913403B613B685B6803F48033002B44
:103FB00003D03A69FB6813433B61194A3B69C2F875
:103FC0008030174BD3F884303B61FB68DB433A69A0
:103FD00013403B613B685B6803F40033002B03D064
:103FE0003A69FB6813433B610D4A3B69C2F8843070
:103FF0007B6901337B613B681A687B6922FA03F3B2
:10400000002B7FF4B7AE00BF00BF1C37BD4680BC9D
:10401000704700BF0000014000040048000800484D
:104020000008005880B483B000AF78600B467B80F6
:1040300013467B707B78002B03D07A887B689A616B
:1040400002E07A887B689A6200BF0C37BD4680BC6C
:104050007047000080B400AF044B1B68034A43F470
:104060008073136000BFBD4680BC704700040058D9
:1040700080B400AF034B1B6803F4C0631846BD4611
:1040800080BC70470004005880B400AF064B1B682A
:1040900003F48073B3F5807F01D1012300E0002396
:1040A0001846BD4680BC70470004005880B400AF7D
:1040B0004FF0B0431B684FF0B04243F4001313605D
:1040C00000BFBD4680BC704780B400AF4FF0B04326
:1040D0001B684FF0B04223F40013136000BFBD46CD
:1040E00080BC704780B400AF4FF0B0431B6803F44E
:1040F0008013B3F5801F01D1012300E0002318468F
:10410000BD4680BC704780B400AF4FF0B0431B6821
:104110004FF0B04243F48033136000BFBD4680BC13
:10412000704780B400AF4FF0B0431B684FF0B0420F
:1041300023F48033136000BFBD4680BC704780B459
:1041400000AF4FF0B0431B6803F40033B3F5003FFA
:1041500001D1012300E000231846BD4680BC704712
:1041600080B400AF4FF0B0431B684FF0B04243F44F
:104170008073136000BFBD4680BC704780B400AF41
:104180004FF0B0431B684FF0B04223F480731360CC
:1041900000BFBD4680BC704780B400AF4FF0B04355
:1041A0001B6803F48063B3F5806F01D1012300E045
:1041B00000231846BD4680BC704780B483B000AF72
:1041C00078604FF0B0435B6823F0FE427B681B06CB
:1041D0004FF0B04113434B6000BF0C37BD4680BC6D
:1041E000704780B400AF4FF0B043D3F8903003F085
:1041F0000203022B01D1012300E000231846BD4633
:1042000080BC704780B400AF4FF0B043D3F8943017
:104210004FF0B04243F00103C2F8943000BFBD46F6
:1042200080BC704780B400AF4FF0B043D3F89430F7
:104230004FF0B04223F00103C2F8943000BFBD46F6
:1042400080BC704780B400AF4FF0B043D3F89430D7
:1042500003F00203022B01D1012300E000231846E2
:10426000BD4680BC704780B400AF4FF0B0431B68C0
:104270004FF0B04243F00103136000BFBD4680BC65
:10428000704780B400AF4FF0B0431B684FF0B042AE
:1042900023F00103136000BFBD4680BC704780B4AB
:1042A00000AF4FF0B0431B6803F00203022B01D1B3
:1042B000012300E000231846BD4680BC704780B44F
:1042C00000AF4FF0B0431B6803F00803082B01D187
:1042D000012300E000231846BD4680BC704780B42F
:1042E00000AF4FF0B0431B6803F0F0031846BD4623
:1042F00080BC704780B400AF4FF0B043D3F8943027
:1043000003F470631846BD4680BC704780B483B028
:1043100000AF78604FF0B0435B6823F47F427B6866
:104320001B024FF0B04113434B6000BF0C37BD463A
:1043300080BC704780B483B000AF78604FF0B0436A
:104340009B6823F003024FF0B0417B6813438B60FE
:1043500000BF0C37BD4680BC704780B400AF4FF043
:10436000B0439B6803F00C031846BD4680BC704701
:1043700080B483B000AF78604FF0B0439B6823F007
:10438000F0024FF0B0417B6813438B6000BF0C37E5
:10439000BD4680BC704780B483B000AF78604FF0FA
:1043A000B043D3F8083123F0F0024FF0B0417B68FE
:1043B0001343C1F8083100BF0C37BD4680BC7047BD
:1043C00080B483B000AF78604FF0B043D3F80831C9
:1043D00023F00F027B681B094FF0B0411343C1F873
:1043E000083100BF0C37BD4680BC704780B483B035
:1043F00000AF78604FF0B0439B6823F4E0624FF069
:10440000B0417B6813438B6000BF0C37BD4680BC56
:10441000704780B483B000AF78604FF0B0439B68C2
:1044200023F460524FF0B0417B6813438B6000BFB0
:104430000C37BD4680BC704780B400AF4FF0B0432E
:104440009B6803F0F0031846BD4680BC704780B4FB
:1044500000AF4FF0B043D3F808311B0103F0F00375
:104460001846BD4680BC704780B400AF4FF0B043E3
:104470009B6803F4E0631846BD4680BC704780B477
:1044800000AF4FF0B0439B6803F460531846BD463D
:1044900080BC704780B400AF4FF0B0431B684FF052
:1044A000B04243F08073136000BFBD4680BC7047CC
:1044B00080B400AF4FF0B0431B684FF0B04223F020
:1044C0008073136000BFBD4680BC704780B400AFEE
:1044D0004FF0B0431B6803F00073B3F1007F01D1CC
:1044E000012300E000231846BD4680BC704780B41D
:1044F00000AF4FF0B043DB681B0A03F07F031846A0
:10450000BD4680BC704780B400AF4FF0B043DB685D
:1045100003F060431846BD4680BC704780B400AFCE
:104520004FF0B043DB6803F070031846BD4680BC13
:10453000704780B400AF4FF0B043DB6803F0030373
:104540001846BD4680BC704780B400AF4FF0B04302
:104550009B6803F48033B3F5803F01D1012300E071
:1045600000231846BD4680BC704780B400AF4FF0B2
:10457000B043D3F8083103F40033B3F5003F01D161
:10458000012300E000231846BD4680BC704780B47C
:1045900000AF4FF0B043D3F8083103F48033B3F5E4
:1045A000803F01D1012300E000231846BD4680BCB6
:1045B000704780B400AF4FF0B0439B6803F4003302
:1045C000B3F5003F01D1012300E000231846BD46AA
:1045D00080BC704780B400AF4FF0B0439B6803F4D9
:1045E0008023B3F5802F01D1012300E0002318467A
:1045F000BD4680BC7047000080B588B000AF7860D1
:104600007B68002B01D101236FE3FFF7A6FEF86161
:10461000FFF78FFFB8617B681B6803F02003002B56
:1046200000F0C480FB69002B05D0FB690C2B76D110
:10463000BB69012B73D17B681B6A002B01D101235D
:1046400053E37B689A6A4FF0B0431B6803F008039A
:10465000002B05D04FF0B0431B6803F0F00306E0D9
:104660004FF0B043D3F894301B0903F0F0039342AA
:1046700022D27B689B6A184600F05AFD0346002B45
:1046800001D0012331E34FF0B0431B684FF0B0423B
:1046900043F0080313604FF0B0431B6823F0F002AF
:1046A0007B689B6A4FF0B04113430B607B685B6A89
:1046B0001846FFF72BFE21E04FF0B0431B684FF088
:1046C000B04243F0080313604FF0B0431B6823F07F
:1046D000F0027B689B6A4FF0B04113430B607B682C
:1046E0005B6A1846FFF712FE7B689B6A184600F06B
:1046F0001FFD0346002B01D00123F6E200F0E0FC91
:104700000346A74A1360A74B1B681846FEF750FEE6
:104710000346FB74FB7C002B47D0FB7CE5E27B6807
:104720001B6A002B2CD0FFF79EFDFEF7CFF97861B6
:1047300008E0FEF7CBF902467B69D31A022B01D9B8
:104740000323D2E2FFF7ABFD0346002BF1D04FF07D
:10475000B0431B684FF0B04243F0080313604FF0C2
:10476000B0431B6823F0F0027B689B6A4FF0B041B6
:1047700013430B607B685B6A1846FFF7C7FD15E0C3
:10478000FFF77FFDFEF7A2F9786108E0FEF79EF9DA
:1047900002467B69D31A022B01D90323A5E2FFF756
:1047A0007EFD0346002BF1D100E000BF7B681B6853
:1047B00003F00103002B58D0FB69082B05D0FB69DF
:1047C0000C2B08D1BB69032B05D17B685B68002BE0
:1047D0004BD1012389E24FF0B0431B6823F48012D0
:1047E0007B689B684FF0B04113430B607B685B684C
:1047F000B3F5803F02D1FFF786FC0DE07B685B6874
:10480000B3F5041F04D1FFF751FCFFF77CFC03E074
:10481000FFF787FCFFF758FC7B685B68002B12D022
:10482000FEF754F9786108E0FEF750F902467B691B
:10483000D31A642B01D9032357E2FFF780FC034608
:10484000002BF1D011E0FEF741F9786108E0FEF7A6
:104850003DF902467B69D31A642B01D9032344E254
:10486000FFF76DFC0346002BF1D17B681B6803F05A
:104870000203002B46D0FB69042B05D0FB690C2BEF
:104880000ED1BB69022B0BD17B681B69002B01D1B8
:1048900001232AE27B685B691846FFF78EFC31E052
:1048A0007B681B69002B19D0FFF75AFCFEF70EF945
:1048B000786108E0FEF70AF902467B69D31A022BF9
:1048C00001D9032311E2FFF767FC0346002BF1D067
:1048D0007B685B691846FFF770FC13E0FFF74EFC3E
:1048E000FEF7F4F8786108E0FEF7F0F802467B691D
:1048F000D31A022B01D90323F7E1FFF74DFC03463E
:10490000002BF1D17B681B6803F00803002B6ED0ED
:104910007B689B69002B56D04FF0B043D3F894309E
:10492000FB607B68DA69FB6803F010039A4231D0C0
:10493000FB6803F00203002B06D0FB6803F00103C1
:10494000002B01D10123D0E1FB6803F00103002B10
:1049500013D0FFF767FCFEF7B9F8786108E0FEF7BF
:10496000B5F802467B69D31A112B01D90323BCE1A8
:10497000FFF768FC0346002BF1D14FF0B043D3F8AA
:10498000943023F010027B68DB694FF0B041134391
:10499000C1F89430FFF736FCFEF798F878610CE028
:1049A0000C00002010000020FEF790F802467B6902
:1049B000D31A112B01D9032397E1FFF743FC0346D8
:1049C000002BF1D013E0FFF72DFCFEF77FF87861A4
:1049D00008E0FEF77BF802467B69D31A112B01D958
:1049E000032382E1FFF72EFC0346002BF1D17B6805
:1049F0001B6803F00403002B00F0D880FFF744FB92
:104A00000346002B13D1FFF725FBFEF75FF8786113
:104A100008E0FEF75BF802467B69D31A022B01D946
:104A2000032362E1FFF730FB0346002BF1D07B68E4
:104A3000DB68002B7BD07B68DB68852B03D07B6831
:104A4000DB68052B09D14FF0B043D3F890304FF01D
:104A5000B04243F00403C2F89030FEF737F87861B3
:104A60004FF0B043D3F890304FF0B04243F0010321
:104A7000C2F890300AE0FEF729F802467B69D31AA3
:104A800041F28832934201D903232EE1FFF7A9FBBB
:104A90000346002BEFD07B68DB68812B03D07B685B
:104AA000DB68852B21D1FEF711F878614FF0B04318
:104AB000D3F890304FF0B04243F08003C2F890300A
:104AC0000AE0FEF703F802467B69D31A41F2883206
:104AD000934201D9032308E14FF0B043D3F890305B
:104AE00003F40063002BECD060E0FDF7EFFF78618A
:104AF0004FF0B043D3F890304FF0B04223F0800332
:104B0000C2F890300AE0FDF7E1FF02467B69D31A54
:104B100041F28832934201D90323E6E04FF0B043DB
:104B2000D3F8903003F40063002BECD13EE0FDF7A6
:104B3000CDFF78614FF0B043D3F890304FF0B042E2
:104B400023F08003C2F890300AE0FDF7BFFF024671
:104B50007B69D31A41F28832934201D90323C4E01E
:104B60004FF0B043D3F8903003F40063002BECD146
:104B7000FDF7ACFF78614FF0B043D3F890304FF0C1
:104B8000B04223F00103C2F890300AE0FDF79EFF27
:104B900002467B69D31A41F28832934201D903233A
:104BA000A3E0FFF71EFB0346002BEFD17B68DB6A17
:104BB000002B00F09980FB690C2B6CD07B68DB6AC2
:104BC000022B4BD1FFF774FCFDF780FF786108E002
:104BD000FDF77CFF02467B69D31A0A2B01D9032318
:104BE00083E0FFF773FC0346002BF1D14FF0B04395
:104BF000DA68404B13407A68116B7A68526B114344
:104C00007A68926B120211437A68D26B11437A6808
:104C1000126C11437A68526C0A434FF0B04113434F
:104C2000CB60FFF737FC4FF0B043DB684FF0B0428A
:104C300043F08053D360FDF749FF786108E0FDF74A
:104C400045FF02467B69D31A0A2B01D903234CE0A6
:104C5000FFF73CFC0346002BF1D045E0FFF728FCB2
:104C6000FDF734FF786108E0FDF730FF02467B690D
:104C7000D31A0A2B01D9032337E0FFF727FC034699
:104C8000002BF1D14FF0B043DA684FF0B0411A4B2E
:104C90001340CB6028E07B68DB6A012B01D1012344
:104CA00023E04FF0B043DB68BB61BB6903F0030254
:104CB0007B681B6B9A4215D1BB6903F070027B685D
:104CC0005B6B9A420ED1BB6903F4FE427B689B6B1F
:104CD0001B029A4206D1BB6903F060427B685B6CA1
:104CE0009A4201D0012300E0002318462037BD4638
:104CF00080BD00BF8C80C111FCFFFEEE80B584B08A
:104D000000AF786039607B68002B01D101232CE172
:104D1000984B1B6803F007033A689A421BD9954BDE
:104D20001B6823F0070293493B6813430B60FDF7B0
:104D3000CDFEF86008E0FDF7C9FE0246FB68D31A15
:104D4000022B01D9032310E18A4B1B6803F00703F0
:104D50003A689A42EFD17B681B6803F00203002B8C
:104D600016D07B689B681846FFF702FBFDF7AEFE86
:104D7000F86008E0FDF7AAFE0246FB68D31A022B92
:104D800001D90323F1E0FFF7DFFB0346002BF1D04D
:104D90007B681B6803F02003002B16D07B685B69DF
:104DA0001846FFF7F8FAFDF791FEF86008E0FDF706
:104DB0008DFE0246FB68D31A022B01D90323D4E0EF
:104DC000FFF7D3FB0346002BF1D07B681B6803F091
:104DD0004003002B16D07B689B691846FFF7F0FA5A
:104DE000FDF774FEF86008E0FDF770FE0246FB6810
:104DF000D31A022B01D90323B7E0FFF7C8FB034600
:104E0000002BF1D07B681B6803F00403002B16D045
:104E10007B68DB681846FFF7E9FAFDF757FEF86094
:104E200008E0FDF753FE0246FB68D31A022B01D9B6
:104E300003239AE0FFF7BDFB0346002BF1D07B680C
:104E40001B6803F00803002B17D07B681B69DB008D
:104E50001846FFF7DEFAFDF739FEF86008E0FDF7C7
:104E600035FE0246FB68D31A022B01D903237CE0EE
:104E7000FFF7B0FB0346002BF1D07B681B6803F003
:104E80000103002B43D07B685B68022B06D1FFF740
:104E900056F90346002B1ED1012366E07B685B6850
:104EA000032B06D1FFF712FB0346002B13D101237E
:104EB0005BE07B685B68002B06D1FFF7F0F90346E7
:104EC000002B08D1012350E0FFF766F90346002BC1
:104ED00001D1012349E07B685B681846FFF72AFA95
:104EE000FDF7F4FDF8600AE0FDF7F0FD0246FB680F
:104EF000D31A41F28832934201D9032335E0FFF7F8
:104F00002CFA02467B685B689B009A42ECD1194BF5
:104F10001B6803F007033A689A421BD2154B1B68C3
:104F200023F0070213493B6813430B60FDF7CEFDE6
:104F3000F86008E0FDF7CAFD0246FB68D31A022BB1
:104F400001D9032311E00B4B1B6803F007033A68F8
:104F50009A42EFD100F0B4F80346074A1360074BBA
:104F60001B681846FEF724FA034618461037BD465C
:104F700080BD00BF004000580C0000201000002041
:104F800090B587B000AF00237B6100233B61FFF742
:104F9000E4F9B860FFF7CDFA7860BB68002B05D064
:104FA000BB680C2B39D17B68012B36D1FFF787F911
:104FB0000346002B15D1FFF782F90346012B06D1DA
:104FC000FFF78DF903461B0A03F00F0305E0FFF717
:104FD00091F903461B0A03F00F03364A52F82330B7
:104FE00014E0FFF76CF90346012B06D1FFF777F9C0
:104FF00003461B0903F00F0305E0FFF77BF90346A7
:105000001B0903F00F032B4A52F823303B61BB68A6
:10501000002B15D13B697B6112E0BB68042B02D1E8
:10502000254B7B610CE0BB68082B09D1FFF75AF8D0
:105030000346012B02D1204B7B6101E01F4B7B61BA
:10504000FFF78BF903460C2B2FD1FFF772FA78602C
:105050007B68022B03D07B68032B03D00DE0164B3B
:10506000FB600DE0FFF73EF80346012B02D1124B27
:10507000FB6005E0114BFB6002E03B69FB6000BF99
:10508000FFF735FA0246FB6803FB02F4FFF746FA26
:1050900003461B090133B4FBF3F4FFF734FA03466C
:1050A0005B0F0133B4FBF3F37B617B6918461C375C
:1050B000BD4690BD38CE00080024F4000048E80149
:1050C00098B500AFFFF75CFF0446FFF7B5F903465C
:1050D0001B0903F00F03034A52F82330B4FBF3F328
:1050E000184698BDD8CD000898B500AFFFF7E8FF87
:1050F0000446FFF7B9F903461B0A034A52F8233066
:1051000024FA03F3184698BD18CE000898B500AFEE
:10511000FFF7D6FF0446FFF7B2F90346DB0A034A5E
:1051200052F8233024FA03F3184698BD18CE00082D
:1051300090B585B000AF78607B681B0903F00F0362
:10514000104A52F82330FB60FFF781F903461B0930
:1051500003F00F030C4A52F82330FA68B2FBF3F362
:10516000BB60BB68094AA2FB03239C0CFEF780FFCF
:1051700003461946204600F00BF80346184614373C
:10518000BD4690BD38CE0008D8CD000883DE1B4355
:1051900080B58EB000AF786039603A4A07F12003DD
:1051A00092E80300186004331980374A07F11803A6
:1051B00092E80300186004331980344A07F10C03A5
:1051C00007CA83E8070000237B633B68B3F5007FD1
:1051D0001BD100233B6314E03B6B5B0038333B4443
:1051E00033F8183C1A467B68934207D83B6B9B0008
:1051F00038333B4453F82C3C7B6321E03B6B013359
:105200003B633B6B022BE7D91AE00023FB6214E0FF
:10521000FB6A5B0038333B4433F8203C1A467B681A
:10522000934207D8FB6A9B0038333B4453F82C3C2D
:105230007B6305E0FB6A0133FB62FB6A022BE7D963
:10524000134B1B6823F0070211497B6B13430B6060
:10525000FDF73CFCB86208E0FDF738FC0246BB6A8B
:10526000D31A022B01D9032307E0094B1B6803F073
:1052700007037A6B9A42EFD1002318463837BD46B0
:1052800080BD00BF98CD0008A0CD0008A8CD0008C3
:105290000040005880B400AF4FF0B043D3F89030D6
:1052A00003F00203022B01D1012300E00023184682
:1052B000BD4680BC704780B483B000AF78604FF0CB
:1052C000B043D3F888207B681B0CDB431A407B6813
:1052D0009BB24FF0B0411343C1F8883000BF0C3788
:1052E000BD4680BC704780B483B000AF78604FF09B
:1052F000B043D3F8883023F440724FF0B0417B685C
:105300001343C1F8883000BF0C37BD4680BC7047DE
:1053100080B483B000AF78604FF0B043D3F88830EA
:1053200023F440624FF0B0417B681343C1F88830EA
:1053300000BF0C37BD4680BC704780B483B000AF5F
:1053400078604FF0B043D3F888207B681B0903F4E2
:105350007F23DB431A407B681B0103F47F234FF05C
:10536000B0411343C1F8883000BF0C37BD4680BC44
:10537000704780B483B000AF78604FF0B043D3F88B
:1053800088207B681B0C1B04DB431A407B681B04D2
:105390004FF0B0411343C1F8883000BF0C37BD4611
:1053A00080BC704780B483B000AF78604FF0B043EA
:1053B000D3F8883023F040424FF0B0417B6813436C
:1053C000C1F8883000BF0C37BD4680BC704780B440
:1053D00083B000AF78604FF0B043D3F8883023F04B
:1053E00040524FF0B0417B681343C1F8883000BF92
:1053F0000C37BD4680BC704780B483B000AF786086
:105400004FF0B043D3F8903023F440724FF0B041E6
:105410007B681343C1F8903000BF0C37BD4680BC99
:10542000704780B400AF4FF0B043D3F8903003F42E
:1054300040731846BD4680BC704780B400AF4FF043
:10544000B043D3F890304FF0B04243F48033C2F809
:10545000903000BFBD4680BC704780B400AF4FF0B5
:10546000B043D3F890304FF0B04223F48033C2F809
:10547000903000BFBD4680BC7047000080B586B04C
:1054800000AF786000237B610023FB740023BB74B2
:105490007B681B6803F48033002B58D0FEF7DAFDDD
:1054A000FDF714FBF86009E0FDF710FB0246FB680E
:1054B000D31A022B02D90323FB7406E07B4B1B6833
:1054C00003F48073B3F5807FEED1FB7C002B3CD1DD
:1054D000FFF7A7FF02467B685B6B9A420FD04FF045
:1054E000B043D3F8903023F440737B61FFF7A5FFFE
:1054F000FFF7B3FF4FF0B0427B69C2F890307B6991
:1055000003F00203002B14D0FDF7E0FAF8600BE083
:10551000FDF7DCFA0246FB68D31A41F28832934267
:1055200002D90323FB7404E0FFF7B4FE0346012B0A
:10553000EED1FB7C002B05D17B685B6B1846FFF737
:105540005BFF04E0FB7CBB7401E0FB7CBB747B680D
:105550001B6803F00103002B04D07B685B681846CE
:10556000FFF7A9FE7B681B6803F00203002B04D041
:105570007B689B681846FFF79EFE7B681B6803F0FC
:105580002003002B04D07B681B691846FFF7C0FE80
:105590007B681B6803F40073002B04D07B681B6AD4
:1055A0001846FFF7E6FE7B681B6803F48063002B58
:1055B00004D07B685B6A1846FFF7DBFE7B681B68DC
:1055C00003F40063002B04D07B689B6A1846FFF746
:1055D000D0FE7B681B6803F04003002B04D07B687F
:1055E0005B691846FFF7A9FE7B681B6803F0800320
:1055F000002B04D07B689B691846FFF79EFE7B68F2
:105600001B6803F48073002B04D07B68DB691846A9
:10561000FFF793FE7B681B6803F01003002B11D08B
:105620007B68DB681846FFF75EFE7B68DB68B3F5D6
:10563000807F07D14FF0B043DB684FF0B04243F0BA
:105640008073D3607B681B6803F40043002B10D089
:105650007B681B6B1846FFF7A5FE7B681B6B002B56
:1056600007D14FF0B043DB684FF0B04243F0807396
:10567000D3607B681B6803F48043002B11D07B68E8
:10568000DB6A1846FFF7A3FE7B68DB6AB3F1005FB5
:1056900007D14FF0B043DB684FF0B04243F48033A2
:1056A000D360BB7C18461837BD4680BD0004005847
:1056B00080B483B000AF7860064B9B6823F400622F
:1056C00004497B6813438B6000BF0C37BD4680BC28
:1056D000704700BF0004005880B400AF054BD3F8FA
:1056E0009030044A43F40043C2F8903000BFBD46F6
:1056F00080BC70470004005880B400AF054BD3F85D
:105700009030044A23F40043C2F8903000BFBD46F5
:1057100080BC70470004005880B400AF034B4FF4C6
:1057200000629A6100BFBD4680BC7047000400580B
:1057300080B400AF064B5B6903F00203022B01D17A
:10574000012300E000231846BD4680BC704700BF1F
:105750000004005880B400AF064B5B6903F00403FB
:10576000042B01D1012300E000231846BD4680BC74
:10577000704700BF0004005880B400AF4FF0B04342
:10578000D3F894304FF0B04223F40043C2F8943081
:1057900000BFBD4680BC704780B400AF4FF0B0433F
:1057A000D3F8943003F48043B3F5804F01D1012343
:1057B00000E000231846BD4680BC704780B483B02B
:1057C00000AF7860064BD3F8902005497B681343FF
:1057D000C1F8903000BF0C37BD4680BC704700BF99
:1057E0000008005880B584B000AF78607B68002B5B
:1057F00003D10123FB73FB7B52E00023FB737B6827
:105800009B79BB73BB7B002B02D0BB7B032B09D1E5
:105810007B6800225A717868FDF73EF94FF480509A
:10582000FFF7CCFFBB7B002B26D17B6802229A714D
:10583000FFF7A2FF1C4B1A681346DB009B1A9B0064
:10584000DB0C642202FB03F3BB60BB68002B05D1B9
:105850000123FB737B6801229A6007E0BB68013B70
:10586000BB60FFF799FF0346002BEED1FFF734FF33
:105870004FF40060FFF71CFFFFF74EFFFB7B002B90
:105880000AD17B681B68184600F0ACFA7B680122DD
:105890001A717B6800229A607B6801229A71FB7BF7
:1058A00018461037BD4680BD0C00002080B586B07C
:1058B00000AFF8607A601A460B467B8113463B8145
:1058C000FB689B79DBB2012B4AD1FB685B79012B2A
:1058D00001D1022345E0FB6801225A71FB680222D4
:1058E0009A71F86800F04CFBFFF706FF0D21F8688D
:1058F00000F098FA7B891B0A9BB2DBB21946F86864
:1059000000F090FA7B89DBB21946F86800F08AFA59
:105910000023BB820AE0BB8A7A6813441B781946CD
:10592000F86800F07FFABB8A0133BB82BA8A3B89F0
:105930009A42F0D3FFF7D0FEF86800F045FBFB6811
:105940009B68002B02D00123FB7501E00023FB754F
:10595000FB6801229A71FB6800225A71FB7D00E00E
:10596000022318461837BD4680BD80B588B000AF09
:10597000F8607A601A460B467B8113463B817B6850
:10598000BB61FB689B79DBB2012B4AD1FB685B7979
:10599000012B01D1022345E0FB6801225A71F8680E
:1059A00000F0EEFAFFF7A8FE1D21F86800F03AFAC1
:1059B0007B891B0A9BB2DBB21946F86800F032FA09
:1059C0007B89DBB21946F86800F02CFA0021F868F0
:1059D00000F028FA0023FB8209E0B969F86800F0BA
:1059E00077FABB690133BB61FB8A0133FB82FA8A18
:1059F0003B899A42F1D3FFF76FFEF86800F0E4FAB2
:105A0000FB689B68002B02D00123FB7701E0002399
:105A1000FB77FB6801229A71FB6800225A71FB7FB9
:105A200000E0022318462037BD4680BD80B586B011
:105A300000AFF8607A601A460B46FB7213463B8152
:105A4000FB689B79DBB2012B4AD1FB685B79012BA8
:105A500001D1022345E0FB6801225A71F86800F089
:105A60008FFAFB7A842B02D0FB7A942B03D1FB684C
:105A700001221A7102E0FB6800221A71FFF73CFE56
:105A8000FB7A1946F86800F0CDF90023BB820AE0E2
:105A9000BB8A7A6813441B781946F86800F0C2F98B
:105AA000BB8A0133BB82BA8A3B899A42F0D3FFF7A3
:105AB00013FEFB7A842B02D0F86800F085FAFB68AD
:105AC0009B68002B02D00123FB7501E00023FB75CE
:105AD000FB6801229A71FB6800225A71FB7D00E08D
