:020000040800F2
:1000000000000120F1320008292900082F290008EA
:10001000352900083B29000841290008000000009C
:100020000000000000000000000000004729000858
:1000300053290008000000005F2900086B29000810
:1000400041330008413300084133000841330008C0
:1000500041330008413300084133000841330008B0
:100060004133000841330008413300087929000872
:100070008D290008A1290008B5290008413300088E
:100080004133000841330008413300084133000880
:100090004133000841330008413300084133000870
:1000A0004133000841330008413300084133000860
:1000B0004133000841330008413300084133000850
:1000C0004133000841330008413300084133000840
:1000D000C9290008DD290008F1290008413300087A
:1000E0004133000841330008413300084133000820
:1000F0004133000841330008413300084133000810
:100100004133000841330008052A00084133000844
:1001100041330008413300084133000841330008EF
:1001200041330008413300084133000841330008DF
:080130004133000841330008CF
:1001400010B5054C237833B9044B13B10448AFF311
:1001500000800123237010BD680000200000000013
:10016000F8C3000808B5034B1BB103490348AFF3BC
:10017000008008BD000000006C000020F8C30008EB
:1001800001F0FF01102A2BDB10F0070F08D010F848
:10019000013B013A8B422DD010F0070F42B3F6D14C
:1001A000F0B441EA012141EA014122F007047FF065
:1001B00000070023F0E80256083C85EA010586EABC
:1001C000010685FA47F5A3FA87F586FA47F6A5FAF8
:1001D00087F68EB9EED1F0BC01F0FF0102F0070204
:1001E00032B110F8013B013A83EA010313B1F8D1AF
:1001F0000020704701387047002D06BF3546033890
:10020000073815F0010F07D1013015F4807F02BFC8
:10021000013015F4C03F0130F0BC0138704700BF19
:1002200053B94AB9002908BF00281CBF4FF0FF315D
:100230004FF0FF3000F070B9ADF1080C6DE904CE5D
:1002400000F006F8DDF804E0DDE9022304B07047B1
:100250002DE9F047089E0D4604460F46002B4AD173
:100260008A42944665D9B2FA82F343B102FA03FC9A
:10027000C3F120029F4020FA02F217439C404FEA4C
:100280001C4E1FFA8CF5B7FBFEF1220C0EFB11770A
:1002900042EA074201FB05F090420AD91CEB020238
:1002A00001F1FF3780F01B81904240F21881023942
:1002B0006244121AA4B2B2FBFEF00EFB102244EA12
:1002C000024400FB05F5A5420AD91CEB040400F129
:1002D000FF3280F00681A54240F203816444023877
:1002E00040EA0140641B00211EB1DC400023C6E946
:1002F0000043BDE8F0878B4208D9002E00F0EC8067
:100300000021C6E900050846BDE8F087B3FA83F18D
:10031000002949D1AB4202D3824200F2F780841A0D
:1003200065EB030201201746002EE2D0C6E9004724
:10033000DFE702B9FFDEB2FA82F3002B40F08F80D4
:100340008A1A4FEA1C471FFA8CFE0121B2FBF7F50F
:1003500007FB1520220C42EA00420EFB05F09042FA
:1003600008D91CEB020205F1FF3802D2904200F2DC
:10037000CA804546121AA4B2B2FBF7F007FB10225E
:1003800044EA02440EFB00FEA64508D91CEB040417
:1003900000F1FF3202D2A64500F2BA801046A4EB6B
:1003A0000E0440EA05409FE7C1F120078B4022FA86
:1003B00007FC4CEA030C05FA01F420FA07F3FD40B0
:1003C000234300FA01F94FEA1C401FFA8CFEB5FBEB
:1003D000F0F81C0C00FB185544EA054408FB0EF528
:1003E000A54202FA01F20BD91CEB040408F1FF3A12
:1003F00080F08780A54240F28480A8F1020864441E
:10040000641B9DB2B4FBF0F300FB134445EA0444C3
:1004100003FB0EFEA64508D91CEB040403F1FF30D4
:100420006BD2A64569D9023B644443EA0840A0FB6D
:100430000283A4EB0E049C42C6461D4655D352D0FF
:1004400056B1B9EB0E0364EB050404FA07F7CB4091
:10045000CC401F43C6E900740021BDE8F087C3F11A
:10046000200102FA03FC20FA01F225FA01F19D4075
:100470002A434FEA1C471FFA8CFEB1FBF7F007FB3B
:100480001015110C41EA054100FB0EF58D4204FAEE
:1004900003F408D91CEB010100F1FF382FD28D4283
:1004A0002DD902386144491B92B2B1FBF7F507FB25
:1004B000151142EA014205FB0EF1914208D91CEBED
:1004C000020205F1FF3816D2914214D9023D62446E
:1004D000521A45EA004139E73146304609E73946C4
:1004E000E7E61046FCE6C145AAD2B8EB020E63EB84
:1004F0000C050138A4E74546EAE7034695E7404680
:10050000D1E7D0467CE7023D624433E708460BE77B
:100510006444023843E700BF704700BF80B487B02F
:1005200000AF78607B685A78144B1A7001237B61A6
:1005300003233B617B6802331B78BB600023FB60B5
:1005400011E03B697A68134419780C4A7B691344BB
:100550000A461A707B6901337B613B6901333B6159
:10056000FB680133FB60FA68BB689A42E9DB00BFB5
:1005700000BF1C37BD4680BC704700BFB4010020DF
:1005800080B586B000AF78600B46FB700023FB811E
:10059000FB781946786800F06DF90346FB81224B21
:1005A0007E221A7001237B6100233B610EE03B69D0
:1005B0007A68134419781C4A7B6913440A461A70F6
:1005C0007B6901337B613B6901333B61FB783A69AD
:1005D0009A42ECDBFB891B0A9BB2D9B2124A7B69B7
:1005E00013440A461A707B6901337B61FB89D9B2D7
:1005F0000D4A7B6913440A461A707B6901337B619B
:10060000094A7B6913447E221A709622002107480A
:100610000BF070FA9622002105480BF06BFA00BF30
:100620001837BD4680BD00BF700300208400002045
:100630001C01002080B586B000AF78600B46FB70CF
:100640007868FFF76BFF3A4B72221A70384B9C2286
:100650005A70374B64229A70354BA622DA70344BAD
:1006600064221A71324B40225A71314BE0229A7146
:100670002F4B7222DA712E4B9C221A722C4B642261
:100680005A722B4BA6229A72294B6422DA72284B9B
:1006900040221A73264B61225A73254B03229A7308
:1006A000234BF022DA7310237B6100233B610EE0C1
:1006B000204A3B69134419781D4A7B6913440A4652
:1006C0001A707B6901337B613B6901333B61FB78C5
:1006D0003A699A42ECDB7969174800F04FF81748FD
:1006E00000F04CF80023FB600AE0114AFB68134459
:1006F0001B781946124800F041F8FB680133FB6093
:10070000FA687B699A42F0DB0C4800F037F87A69A6
:100710000C49074800F0EDF8B860BB68DBB2194639
:100720000848FFF72DFF00BF1837BD4680BD00BF4A
:1007300084000020B401002010C4000828C4000870
:100740002CC400081C01002080B485B000AF786084
:10075000094B1B6800225A6202E0FB680133FB6010
:10076000054B1B685B6A7A689A42F6D800BF00BFE7
:100770001437BD4680BC7047D80400200FB480B544
:1007800082B000AF07F114033B603B683A69642113
:100790000A480BF0A1F9094800F014F878607B686A
:1007A0009AB24FF47A730549054805F054FF00BF2B
:1007B0000837BD46BDE8804004B0704718020020ED
:1007C000BC05002080B485B000AF78600023FB60DA
:1007D00002E0FB680133FB607B685A1C7A601B787F
:1007E000002BF6D1FB6818461437BD4680BC704715
:1007F00080B485B000AF78604FF0B0439A6C4FF092
:10080000B0417B6813438B644FF0B0439A6C7B68B4
:100810001340FB60FB6800BF1437BD4680BC7047C7
:1008200080B500AF0420FFF7E3FF0120FFF7E0FFF2
:10083000002200210B2002F0C8FE0B2002F0DFFE98
:10084000002200210C2002F0C0FE0C2002F0D7FE96
:10085000002200210D2002F0B8FE0D2002F0CFFE94
:10086000002200210E2002F0B0FE0E2002F0C7FE92
:1008700000BF80BD80B487B000AF786039604FF6AC
:10088000FF73FB8241F221037B8100233B6126E061
:100890007A683B6913441B781B021AB2B7F9163009
:1008A00053401BB2FB820023FB6012E0B7F9163005
:1008B000002B08DAFB8A5B001AB2B7F90A30534002
:1008C0001BB2FB8202E0FB8A5B00FB82FB68013308
:1008D000FB60FB68072BE9DD3B6901333B613A694B
:1008E0003B689A42D4D3FB8A18461C37BD4680BC6D
:1008F000704780B48FB000AFF860B9607A600023B1
:100900007B6300233B63002387F82F300723BB6200
:1009100000237B6200233B620023FB6178E0072316
:10092000BB616FE0FB69FA6813441B781A46BB6928
:1009300042FA03F303F001037B617A69BB6A02FAAE
:1009400003F35AB297F92F3013435BB287F82F3075
:10095000BB6A013BBB627B69002B2FD03B6B013331
:100960003B633B6B052B2BD1BB6A002B10DA7B6BF7
:100970005A1C7A631A46BB68134497F82F201A70E2
:100980007B6A01337B62002387F82F300723BB6229
:100990000122BB6A02FA03F35BB2DB435AB297F956
:1009A0002F3013405BB287F82F30BB6A013BBB622C
:1009B0003B6A01333B6200233B6301E000233B635E
:1009C000BB6A002B10DA7B6B5A1C7A631A46BB6831
:1009D000134497F82F201A707B6A01337B6200233F
:1009E00087F82F300723BB623B6A082B07DDBB6A01
:1009F000002B04DB7B6A01337B6200233B62BB6913
:100A0000013BBB61BB69002B8CDAFB690133FB61E5
:100A1000FA697B689A4282DBBB6A062B0BDC7B6B34
:100A20005A1C7A631A46BB68134497F82F201A7031
:100A30007B6A01337B627B6B18463C37BD4680BCCA
:100A4000704780B48DB000AFF860B9607A60002361
:100A5000FB620023BB62002387F8273007233B6239
:100A60000023FB6152E00723BB6149E0FB69FA68A0
:100A700013441B781A46BB6942FA03F303F00103DF
:100A80007B617B69002B11D0BB6A0133BB627A6941
:100A90003B6A02FA03F35AB297F9273013435BB269
:100AA00087F827303B6A013B3B6215E0BB6A052BA8
:100AB00002D10023BB6220E00023BB627A693B6A5B
:100AC00002FA03F35AB297F9273013435BB287F85F
:100AD00027303B6A013B3B623B6A002B0DDAFB6A25
:100AE0005A1CFA621A46BB68134497F827201A70FA
:100AF000002387F8273007233B62BB69013BBB61BA
:100B0000BB69002BB2DAFB690133FB61FA697B68D0
:100B10009A42A8DB3B6A062B08DCFB6A5A1CFA6285
:100B20001A46BB68134497F827201A70FB6A1846C8
:100B30003437BD4680BC704780B485B000AF786064
:100B40000023FB737B6801331B78B22B20D0B22BC0
:100B500030DCB12B19D0B12B2CDC0E2B12DC0A2B84
:100B600028DB0A3B042B25D801A252F823F000BF52
:100B70009D0B0008B50B0008A90B0008AF0B00087F
:100B8000A30B0008AC2B06D014E00123FB7313E089
:100B90000123FB7310E00123FB730DE00123FB73C2
:100BA0000AE00123FB7307E00123FB7304E0012348
:100BB000FB7301E00023FB73FB7B18461437BD4633
:100BC00080BC704780B485B000AF78604FF0B04310
:100BD000DA6C4FF0B0417B681343CB644FF0B04305
:100BE000DA6C7B681340FB60FB6800BF1437BD46BE
:100BF00080BC704780B586B000AF3B1D00221A60F4
:100C00005A609A60DA601A610120FFF7DBFF022068
:100C1000FFF7D8FF0420FFF7D5FF00224FF40A4169
:100C20001F4803F0E9F9002238211E4803F0E4F9D7
:100C30004FF40A437B600123BB600023FB60022367
:100C40003B613B1D1946164803F076F838237B605C
:100C50000123BB600023FB6003233B613B1D19465E
:100C6000104803F069F803237B604FF40413BB6062
:100C70000123FB603B1D19464FF0904003F05CF8E8
:100C800040237B604FF40413BB600123FB603B1DDA
:100C90001946044803F050F800BF1837BD4680BD20
:100CA000000400480008004880B487B000AF7860B6
:100CB000396000237B6100233B610023FB6000233C
:100CC000BB6013E0BB687A6813441B787E2B0AD1A3
:100CD0007B69002B04D101237B61BB683B6102E08F
:100CE000BB68FB6006E0BB680133BB60BA683B6869
:100CF0009A42E7DBFA683B699A4204DDFA683B698D
:100D0000D31A013301E04FF0FF3318461C37BD46BC
:100D100080BC704780B588B002AF02F013FB00F0D2
:100D20004FFAFFF767FFFFF77BFD02F0FDF802F0D7
:100D300061F801F029FF02F0ABF80AF01CFB7D48D6
:100D400005F0B2F97C48FFF719FD7C48FFF716FD66
:100D50007B48FFF713FD7B4A7B497C48FFF70EFD7C
:100D60007B48FFF70BFD0E23009301230022042193
:100D70007848FFF703FD7848FFF700FD774B002226
:100D80001A70764B64221A72744B08225A80734B85
:100D900004221A71714B18225A71704B00229A71F9
:100DA0006E4B0022DA716D4BF2225A726B4B0122AC
:100DB0009A726B4B00221A70694B0D225A73684B62
:100DC0004FF496625A60664B40F6B8329A60644BB4
:100DD0000B221A73634809F085F80021002009F0FE
:100DE000EDFE5E4809F04CFE5F4A07F10C0392E805
:100DF000030083E8030007F10C03184609F009F922
:100E000040F2FF1009F054F94E4809F02DFC01237F
:100E100001220021042009F0A9FB02220E21012059
:100E200009F08EFC4E4809F059FD0023002240F2E3
:100E30000F2140F20F2009F0BBFB01E001F078FC2C
:100E40004A4B1B68002BF9D04948FFF797FC4948EB
:100E5000FFF794FC4848FFF791FC4848FFF78EFCE9
:100E600038494748FFF78AFC3D4B5B6819464548BF
:100E7000FFF784FC3A4B9B6819464348FFF77EFC1A
:100E8000374B5B7B19464148FFF778FC334B1B78A7
:100E900019463F48FFF772FC304B1B7A19463D4814
:100EA000FFF76CFC2D4B5B8819463B48FFF766FC4F
:100EB0002A4B1B7919463948FFF760FC274BDB7931
:100EC00019463748FFF75AFC3648FFF757FC1D48CC
:100ED00009F0CAFB002101200AF00EF86FF07F40F4
:100EE00009F0EEF9304B1B789BB21A462F49304877
:100EF00005F0FCFC2C4B1B789BB21A462B492D4865
:100F000005F0F4FC2C48FFF71FFC2C4B1B68002B52
:100F100000F028812A4B1B7819462448FFF78AFBEA
:100F200096212848FFF7C0FE0346274A1360002396
:100F30007B6157E0D804002034C4000870C4000866
:100F4000A4C400086859F21918D0111AC0C40008C6
:100F500000C5000828C500087CC500087C020020E8
:100F600090020020BD170008BCC70008A4040020A0
:100F7000A8C50008F0C5000810C6000830C6000863
:100F80005CC6000884C6000894C60008B0C6000805
:100F9000CCC60008E0C60008F8C6000810C7000864
:100FA00028C700083CC700080100002014030020E7
:100FB000500600202805002020A107006C03002017
:100FC0001103002070030020A0040020674A7B6901
:100FD00013441978664A7B6913440A461A707B6980
:100FE00001337B61634B1B687A699A42EEDB624B8B
:100FF0001B781A46002161480AF07CFD96220021E8
:101000005A480AF077FD5E4B00221A70594B1B6854
:10101000DAB25B4B1A725A4B08225A80584B0422A0
:101020001A71574B18225A71554B00229A71544B22
:101030000022DA71524BF2225A72514B01229A72FB
:10104000504B00221A704F4B0D225A734D4B4FF4E8
:1010500096525A604B4B42F6E0629A60494B0B2223
:101060001A73494808F03EFF0021002009F0A6FD50
:10107000404B1B68DBB219463D4808F085FF4048ED
:1010800009F0FEFC414A3B1D92E8030083E803009F
:101090003B1D184608F0BDFF40F2FF1009F008F8AC
:1010A0003B4809F0E1FA012301220021042009F064
:1010B0005DFA02220E21012009F042FB314809F0BD
:1010C0000DFC0023002240F20F2140F20F2009F016
:1010D0006FFA3048FFF752FB2D492F48FFF74EFBC0
:1010E000284B5B6819462D48FFF748FB254B9B684A
:1010F00019462B48FFF742FB224B5B7B19462948D8
:10110000FFF73CFB1E4B1B7819462748FFF736FBC1
:101110001B4B1B7A19462548FFF730FB184B5B88A1
:1011200019462348FFF72AFB154B1B79194621481E
:10113000FFF724FB124BDB7919461F48FFF71EFB14
:101140001E48FFF71BFB124809F08EFA012101200F
:1011500009F0D2FE074B1B68DBB200221946044897
:1011600008F044FF0AF00FF9CCE600BF700300203E
:1011700008040020A0040020110300201403002014
:101180007C02002090020020BD170008BCC70008A8
:1011900018D0111A68C7000894C7000884C6000850
:1011A00094C60008B0C60008CCC60008E0C6000817
:1011B000F8C6000810C7000828C700083CC7000888
:1011C00080B59AB000AF07F12003482200211846ED
:1011D0000AF090FC3B1D00221A605A609A60DA60A7
:1011E0001A615A619A61254B1B6823F4C063234A34
:1011F00043F400731360214B1B6803F4C0633B602E
:101200003B6801233B624FF404137B620023BB6203
:101210000223FB6403233B6510237B650623BB6528
:101220004FF40033FB654FF000537B664FF00073C3
:101230003B6607F12003184603F0C8F90346002B6C
:1012400001D001F06FFA4F237B600323BB600023C2
:10125000FB6000233B6100237B610023FB613B1D9E
:101260000221184603F034FD0346002B01D001F0A3
:1012700059FA00BF6837BD4680BD00BF0004005862
:1012800080B58AB000AF78607B68A34A934208D0EB
:101290007B68A24A934204D07B68A14A934240F003
:1012A0006782A04B1B68002B00F062820023FB7456
:1012B0009D4B1B78FA7C9A4203D09B4B1B78532B97
:1012C00011D000237B620BE07B6A0133964AD15C2C
:1012D000954A7B6A13440A461A707B6A01337B6223
:1012E0007B6A542BF0D99048FFF726FC03468F4ABF
:1012F00013608E4B1B68002B00F0ED818C4B1B683C
:10130000012B40F08D818B4B1B68002B40F08881B6
:10131000894B1B68012B40F08381884B00221A60A7
:10132000814B1B78532B40F03B817F4B93F853301C
:101330007E2B40F035818248FFF720FA7A4B9A786D
:10134000804B1A70784B5A787F4B1A707F4B012272
:101350001A607C4B1B7819467348FFF76BF996218E
:101360007B48FFF7A1FC03467A4A136000233B62E7
:101370000BE0774A3B6A13441978774A3B6A134477
:101380000A461A703B6A01333B62724B1B683A6A29
:101390009A42EEDB6B4B1B781A46002162480AF03A
:1013A000A9FB962200216A480AF0A4FB6B48FFF7CC
:1013B000CBF96B4B00221A70664B1B68DAB2684B94
:1013C0001A72674B08225A80654B04221A71644BCB
:1013D00018225A71624B00229A71614B0022DA7115
:1013E0005F4BF2225A725E4B01229A725D4B0022D1
:1013F0001A705C4B0D225A735A4B4FF496625A6026
:10140000584B40F6B8329A60564B0B221A73564826
:1014100008F068FD0021002009F0D0FB4D4B1B684F
:10142000DBB219464C4808F0AFFD4D4809F028FBE7
:101430004E4A07F1080392E8030083E8030007F12E
:101440000803184608F0E5FD40F2FF1008F030FEF2
:10145000474809F009F9012301220021042009F07D
:1014600085F802220E21012009F06AF93D4809F0B1
:1014700035FA0023002240F20F2140F20F2009F03C
:1014800097F83C48FFF77AF939493B48FFF776F976
:10149000344B5B6819463948FFF770F9314B9B684C
:1014A00019463748FFF76AF92E4B5B7B19463548DA
:1014B000FFF764F92A4B1B7819463348FFF75EF9AA
:1014C000274B1B7A19463148FFF758F9244B5B88A4
:1014D00019462F48FFF752F9214B1B7919462D4821
:1014E000FFF74CF91E4BDB7919462B48FFF746F9FD
:1014F0002A48FFF743F91E4809F0B6F801210120F8
:1015000009F0FAFC134B1B68DBB2002219461248A3
:1015100008F06CFD00BF1AE15006002028050020ED
:10152000BC050020A404002014030020B8040020FF
:10153000A804002004000020B40400206C03002054
:10154000C4C7000811030020AC040020B004002030
:1015500070030020A00400200804002020A1070040
:101560007C02002090020020BD170008BCC70008C4
:1015700018D0111A68C7000894C7000884C600086C
:1015800094C60008B0C60008CCC60008E0C6000833
:10159000F8C6000810C7000828C700083CC70008A4
:1015A0007548FFF7EBF8754B1B789AB24FF4FA6366
:1015B0007349744805F04FF80346002B0CD06F4B6D
:1015C0001B789AB24FF4FA636D496F4805F043F8FF
:1015D0000346002B40F0BB8055216C48FFF7CEF846
:1015E0000023FB610AE0664AFB6913441B78194635
:1015F0006748FFF7C3F8FB690133FB61FB69542BB4
:10160000F1D96448FFF7BAF8552200215C480AF086
:1016100071FA614B00221A60604B00221A6096E05A
:10162000574B1B78532B1AD1554B93F853307E2BC5
:1016300015D1534B9A785A4B1A70514B5A78594BD3
:101640001A70584B1B78B12B05D1574B02221A60E8
:10165000564B02221A60504B01221A6078E054481F
:10166000FFF78CF8454B1B789AB24FF4FA63444964
:10167000444804F0F0FF0346002B0BD03F4B1B788F
:101680009AB24FF4FA633E493F4804F0E4FF034640
:10169000002B5DD155214748FFF770F80023BB614F
:1016A0000AE0374ABB6913441B7819463848FFF7EC
:1016B00065F8BB690133BB61BB69542BF1D935486F
:1016C000FFF75CF8552200212D480AF013FA324B3F
:1016D00000221A603CE03848FFF750F8274B1B788F
:1016E0009AB24FF4FA632649264804F0B4FF034641
:1016F000002B0BD0214B1B789AB24FF4FA63204990
:10170000214804F0A8FF0346002B21D15521294888
:10171000FFF734F800237B610AE0194A7B69134420
:101720001B7819461A48FFF729F87B6901337B615A
:101730007B69542BF1D91748FFF720F85522002177
:101740000F480AF0D7F9144B00221A6000E000BFDE
:101750000A4B1B789BB21A4609490A4805F0C6F89D
:10176000064B1B789BB21A460549074805F0BEF8A0
:1017700000BF2837BD4680BDF4C700080100002027
:1017800014030020500600202805002028C8000867
:1017900068C8000870C800086C030020B00400206E
:1017A00011030020AC0400200400002008000020E9
:1017B00074C80008A0C80008D8C800082DE9F04F78
:1017C000BDB000AF0346FB84FB8C022B40F02F869C
:1017D0006422A649A64808F0E7FB09F006FA03468A
:1017E000DBB2A44A1370A448FEF7C8FF002387F8B1
:1017F000BF309E4B1B7819469D48FFF755FA0346AC
:1018000087F8BF306B467B6097F8BF20114639627E
:101810000B46013BC7F8B830CBB200221C46154638
:101820004FF000024FF00003EB0043EA5473E20074
:10183000CBB20022984691464FF000024FF00003D1
:101840004FEAC90343EA58734FEAC8020B4607330D
:10185000DB08DB00ADEB030D6B460033C7F8B4309B
:101860000023C7F8EC301AE0814AD7F8EC30134473
:101870001978D7F8B420D7F8EC3013440A461A7018
:10188000D7F8B420D7F8EC3013441B7819467B48BE
:10189000FEF774FFD7F8EC300133C7F8EC3097F857
:1018A000BF30D7F8EC209A42DEDB7548FEF766FFC2
:1018B000642200216E480AF01DF997F8BF30043BFE
:1018C00087F8B33097F8B3502B46013BC7F8AC30DC
:1018D000EBB20022BB61FA614FF000024FF000034F
:1018E000D7E906894946CB00444643EA547341464A
:1018F000CA00EBB200223B617A614FF000024FF068
:101900000003D7E904894946CB00444643EA5473AF
:101910004146CA002B460733DB08DB00ADEB030D65
:101920006B460033C7F8A8300023C7F8E83001231E
:10193000C7F8E43016E0D7F8B420D7F8E430134401
:101940001978D7F8A820D7F8E83013440A461A7057
:10195000D7F8E8300133C7F8E830D7F8E43001337E
:10196000C7F8E43097F8B330D7F8E4209A42E2DDC4
:101970004348FEF703FF0023A7F8A63097F8B330DB
:101980001946D7F8A800FEF775FF0346A7F8A6305A
:10199000B7F8A6301B0A9BB2DBB287F89430B7F8D1
:1019A000A630DBB287F8953097F8BF30033BD7F805
:1019B000B420D35C87F8A53097F8BF30023BD7F846
:1019C000B420D35C87F8A43097F8943097F8A5201A
:1019D0009A4240F0F38497F8953097F8A4209A4201
:1019E00040F0EC846B461E4697F8B32007F12803BD
:1019F0001946D7F8A800FFF724F8C7F8A000D7F8D1
:101A0000A030013BC7F8A030D7F8A040631EC7F84C
:101A10009C3022460023BA60FB604FF000024FF07A
:101A20000003D7E902894946CB00C44643EA5C7308
:101A30004146CA002246002392469B464FF00002D0
:101A40004FF000034FEACB0343EA5A734FEACA024E
:101A500023460733DB08DB00ADEB030D6B46003399
:101A6000C7F898300023C7F8E0301DE000000020E0
:101A7000AC0200201003002008C9000868C8000854
:101A800070C8000807F12802D7F8E030134419782D
:101A9000D7F89820D7F8E03013440A461A70D7F8E0
:101AA000E0300133C7F8E030D7F8E020D7F8A030B5
:101AB0009A42E7DB9A4B1B68012B40F05181D7F823
:101AC00098309B7CDF2B09D1D7F89830DB7CAB2B8F
:101AD00004D1D7F898301B7DD12B0ED0D7F8983091
:101AE0009B7C532B2ED1D7F89830DB7C022B29D14D
:101AF000D7F898301B7D532B24D18A48FEF73EFE41
:101B0000894B53221A70884BAC225A70864B0422A0
:101B10009A70854B0222DA70834BFC221A71824B39
:101B2000EE225A71804B9A78804B1A70804B0122BA
:101B30001A6023461A460021D7F8980009F0DAFF08
:101B400000F03ABCD7F898309B7CFD2B40F08D809C
:101B5000D7F89830DB7CBA2B40F08780D7F89830E4
:101B60001B7DD02B40F08180724B02221A60704B9B
:101B700000221A60704B00221A60704B00221A601B
:101B80006F48FEF7FBFD684B53221A70664BAC2280
:101B90005A70654B04229A70634B0222DA70624BD2
:101BA00000221A71604BDD225A715F4B9A785F4BAD
:101BB0001A70D7F8A0106348FEF7E0FDA2B24FF408
:101BC000FA63D7F89810604804F045FD0346002BEF
:101BD0000AD0A2B24FF4FA63D7F898105B4804F029
:101BE0003AFD0346002B3CD00023C7F8DC300EE062
:101BF000D7F89820D7F8DC3013441B78194654489E
:101C0000FEF7BCFDD7F8DC300133C7F8DC30D7F87D
:101C1000DC20D7F8A0309A42EADB4E48FEF7AEFD52
:101C200023461A460021D7F8980009F063FF642282
:101C30000021494809F05EFF3B6A1A460021D7F8A7
:101C4000B40009F057FF2B461A460021D7F8A80028
:101C500009F050FF07F1280364220021184609F01B
:101C600049FF334B01221A60A6E3D7F8A01035488C
:101C7000FEF784FDA2B24FF4FA63D7F89810324809
:101C800004F0E9FC0346002B0BD0A2B24FF4FA6338
:101C9000D7F898102D4804F0DEFC0346002B00F026
:101CA0008B830023C7F8D8300EE0D7F89820D7F8F8
:101CB000D83013441B7819462548FEF75FFDD7F846
:101CC000D8300133C7F8D830D7F8D820D7F8A030AB
:101CD0009A42EADB23461A460021D7F8980009F019
:101CE00009FF642200211C4809F004FF3B6A1A46E0
:101CF0000021D7F8B40009F0FDFE2B461A4600215A
:101D0000D7F8A80009F0F6FE07F1280364220021A5
:101D1000184609F0EFFE1148FEF730FD4CE300BF16
:101D20000800002028C90008140300201103002027
:101D30006C03002004000020A8040020B004002050
:101D40004CC900086CC90008500600202805002076
:101D500068C8000870C80008AC02002090C90008DC
:101D6000964B1B68002B40F02783954B1B68012B7B
:101D700040F04681D7F898309B7CFD2B40F08D8059
:101D8000D7F89830DB7CBA2B40F08780D7F89830B2
:101D90001B7DD02B40F081808A4B02221A608A4B37
:101DA00000221A60864B00221A60884B00221A60BB
:101DB0008748FEF7E3FC874B53221A70854BAC2211
:101DC0005A70844B04229A70824B0222DA70814B43
:101DD00000221A717F4BDD225A717E4B9A787E4B1E
:101DE0001A70D7F8A0107D48FEF7C8FCA2B24FF4D5
:101DF000FA63D7F898107A4804F02DFC0346002BBC
:101E00000AD0A2B24FF4FA63D7F89810754804F0DC
:101E100022FC0346002B3CD00023C7F8D4300EE050
:101E2000D7F89820D7F8D43013441B7819466E4859
:101E3000FEF7A4FCD7F8D4300133C7F8D430D7F874
:101E4000D420D7F8A0309A42EADB6848FEF796FC27
:101E500023461A460021D7F8980009F04BFE642269
:101E60000021634809F046FE3B6A1A460021D7F874
:101E7000B40009F03FFE2B461A460021D7F8A8000F
:101E800009F038FE07F1280364220021184609F002
:101E900031FE4D4B01221A608EE2D7F898309B7CC0
:101EA000532B66D1D7F89830DB7C022B61D1D7F861
:101EB00098301B7D532B5CD1D7F8A0104D48FEF70E
:101EC0005DFCA2B24FF4FA63D7F89810444804F0CE
:101ED000C2FB0346002B0BD0A2B24FF4FA63D7F833
:101EE0009810404804F0B7FB0346002B00F06382D3
:101EF0000023C7F8D0300EE0D7F89820D7F8D030BC
:101F000013441B7819463848FEF738FCD7F8D03010
:101F10000133C7F8D030D7F8D020D7F8A0309A4294
:101F2000EADB3248FEF72AFC23461A460021D7F89E
:101F3000980009F0DFFD642200212D4809F0DAFD48
:101F40003B6A1A460021D7F8B40009F0D3FD2B46AE
:101F50001A460021D7F8A80009F0CCFD07F12803A4
:101F600064220021184609F0C5FD2348FEF706FC4F
:101F700021E22248FEF702FC164B53221A70154B41
:101F8000AC225A70134B04229A70124B0222DA7060
:101F9000104BFC221A710F4BEE225A710D4B9A789E
:101FA0000D4B1A70084B01221A6023461A46002175
:101FB000D7F8980009F09EFDFEE100BF0800002060
:101FC000A8040020040000206C030020B0040020BE
:101FD0004CC9000814030020110300206CC900083C
:101FE000500600202805002068C8000870C80008B6
:101FF000AC020020ACC90008DCC9000828C90008F0
:10200000BE4B1B68002B40F0D781D7F898309B7CE3
:10201000FD2B40F08D80D7F89830DB7CBA2B40F058
:102020008780D7F898301B7DD02B40F08180B44B4F
:1020300002221A60B34B00221A60B04B00221A60D1
:10204000B14B00221A60B148FEF798FBB04B532207
:102050001A70AF4BAC225A70AD4B04229A70AC4B45
:102060000222DA70AA4B00221A71A94BDD225A71A2
:10207000A74B9A78A74B1A70D7F8A010A648FEF77E
:102080007DFBA2B24FF4FA63D7F89810A34804F08E
:10209000E2FA0346002B0AD0A2B24FF4FA63D7F853
:1020A00098109F4804F0D7FA0346002B3CD0002339
:1020B000C7F8CC300EE0D7F89820D7F8CC301344CE
:1020C0001B7819469748FEF759FBD7F8CC300133F7
:1020D000C7F8CC30D7F8CC20D7F8A0309A42EADB4A
:1020E0009148FEF74BFB23461A460021D7F898008B
:1020F00009F000FD642200218C4809F0FBFC3B6ADA
:102100001A460021D7F8B40009F0F4FC2B461A4611
:102110000021D7F8A80009F0EDFC07F1280364229C
:102120000021184609F0E6FC764B01221A6043E1D3
:10213000D7F898309B7CDF2B40F08D80D7F8983013
:10214000DB7CAB2B40F08780D7F898301B7DD12B00
:1021500040F081806A4B00221A606A4B00221A60AC
:10216000664B01221A60724B01221A607148FEF719
:1021700005FB674B53221A70654BAC225A70644BB7
:1021800004229A70624B0222DA70614B01221A71AA
:102190005F4BDD225A715E4B9A785E4B1A70D7F80E
:1021A000A0105D48FEF7EAFAA2B24FF4FA63D7F83E
:1021B00098105A4804F04FFA0346002B0AD0A2B2F6
:1021C0004FF4FA63D7F89810554804F044FA0346E0
:1021D000002B3CD00023C7F8C8300EE0D7F8982079
:1021E000D7F8C83013441B7819464E48FEF7C6FA94
:1021F000D7F8C8300133C7F8C830D7F8C820D7F8A7
:10220000A0309A42EADB4848FEF7B8FA23461A465D
:102210000021D7F8980009F06DFC642200214348A2
:1022200009F068FC3B6A1A460021D7F8B40009F0AF
:1022300061FC2B461A460021D7F8A80009F05AFC89
:1022400007F1280364220021184609F053FC2D4BA6
:1022500001221A60B0E0D7F898309B7C532B2DD127
:10226000D7F89830DB7C022B28D1D7F898301B7D2B
:10227000532B23D13048FEF781FA254B53221A7095
:10228000234BAC225A70224B04229A70204B02221C
:10229000DA701F4BFC221A711D4BEE225A711C4B37
:1022A0009A781C4B1A70174B01221A6023461A4663
:1022B0000021D7F8980009F01DFC7DE0D7F8A010A8
:1022C0001548FEF75BFAA2B24FF4FA63D7F89810FC
:1022D000124804F0C0F90346002B0AD0A2B24FF412
:1022E000FA63D7F898100E4804F0B5F90346002BAE
:1022F00062D00023C7F8C4302FE000BFA80400203C
:10230000040000206C030020B00400204CC9000829
:1023100014030020110300206CC90008500600209F
:102320002805002068C8000870C80008AC0200201A
:10233000B404002004CA000828C90008D7F898206F
:10234000D7F8C43013441B7819466A48FEF716FACA
:10235000D7F8C4300133C7F8C430D7F8C420D7F851
:10236000A0309A42EADB6448FEF708FA23461A4690
:102370000021D7F8980009F0BDFB642200215F48D6
:1023800009F0B8FB3B6A1A460021D7F8B40009F0FF
:10239000B1FB2B461A460021D7F8A80009F0AAFB8A
:1023A00007F1280364220021184609F0A3FB5448D2
:1023B000FEF7E4F900E000BFB5461BE05148FEF728
:1023C000DDF9514B53221A704F4BAC225A704E4BD1
:1023D00004229A704C4B0222DA704B4B01221A7184
:1023E000494BEE225A71484B9A78484B1A70484B29
:1023F00001221A60D7F804D0464808F035F90021C8
:10240000012008F079FD6FF07F4007F059FF424B43
:102410001B789BB21A463C49404804F067FA3E4B91
:102420001B789BB21A4638493D4804F05FFAFB8C92
:10243000012B40F04581364B00221A60394B1B6856
:1024400019463948FEF79AF90023C7F8C0300DE065
:10245000364AD7F8C03013441B7819462548FEF792
:102460008DF9D7F8C0300133C7F8C0302D4B1B6849
:10247000D7F8C0209A42EBDB1F48FEF77FF996227F
:1024800000212A4809F036FB294B1B78B12B03D0D9
:10249000274B1B78B22B0CD1264B1B68013B254ADE
:1024A0001360254B1B68013B234A1360204B00221D
:1024B0001A70224B1B68002B0ED01E4B02221A6092
:1024C000134B00221A601E4B00221A601B4B002285
:1024D0001A601C4B00221A60164B1B68002B35D16A
:1024E0000B4B00221A60164B01221A601648FEF7A9
:1024F00045F92EE068C8000870C80008AC0200204A
:1025000090C9000824CA0008140300201103002009
:102510006C0300206859F2190100002050060020C9
:1025200028050020A004002054CA00080804002048
:10253000AC0400200400002008000020B0040020AB
:10254000A8040020B40400208CCA00085F4B0022BD
:102550001A605F48FEF7F8F85E4B00221A705D4B78
:1025600064221A725B4B08225A805A4B04221A7159
:10257000584B18225A71574B00229A71554B002222
:10258000DA71544BF2225A72524B01229A72524B18
:1025900000221A70504B0D225A734F4B4FF4966223
:1025A0005A604D4B40F6B8329A604B4B0B221A736F
:1025B0004A4807F097FC0021002008F0FFFA454840
:1025C00008F05EFA464A07F18C0392E8030083E8BC
:1025D000030007F18C03184607F01BFD40F2FF10C3
:1025E00007F066FD3F4808F03FF801230122002173
:1025F000042007F0BBFF02220E21012008F0A0F802
:10260000354808F06BF90023002240F20F2140F218
:102610000F2007F0CDFF3448FEF7B0F831493348BA
:10262000FEF7ACF82C4B5B6819463148FEF7A6F86C
:10263000294B9B6819462F48FEF7A0F8264B5B7B79
:1026400019462D48FEF79AF8224B1B7819462B485D
:10265000FEF794F81F4B1B7A19462948FEF78EF8AF
:102660001C4B5B8819462748FEF788F8194B1B79E5
:1026700019462548FEF782F8164BDB7919462348A0
:10268000FEF77CF82248FEF779F8164807F0ECFFD1
:102690000021012008F030FC6FF07F4007F010FEB1
:1026A0001C4B1B789BB21A461B491C4804F01EF9B0
:1026B000184B1B789BB21A461749194804F016F9B3
:1026C00000BFF437BD46BDE8F08F00BFA80400206E
:1026D00020A107007C02002090020020BD17000806
:1026E000BCC700086859F21930C600085CC600086B
:1026F00084C6000894C60008B0C60008CCC600080E
:10270000E0C60008F8C6000810C7000828C700087F
:102710003CC70008010000201403002050060020E0
:102720002805002080B400AF72B600BFFEE70000AD
:1027300080B586B000AF072200216C4809F0DAF9B5
:102740006B4B00221A7041F65833072267496948DB
:1027500004F007F80346002B0AD041F6583307224D
:102760006249654803F0FDFF0346002B40F0AA8054
:102770006248FEF703F800237B610AE05B4A7B694D
:1027800013441B7819465E48FDF7F8FF7B69013357
:102790007B617B69062BF1DD5A48FDF7EFFF0023D3
:1027A000FB71524B1B78FA799A4211D100233B619D
:1027B0000BE03B6901334D4AD15C4C4A3B69134401
:1027C0000A461A703B6901333B613B69062BF0D91D
:1027D000464B1B78532B3AD1444B5B797E2B36D139
:1027E0004948FDF7CBFF4FF4FA6307223F494148C0
:1027F00003F031FF0346002B09D04FF4FA630722A0
:102800003A493D4803F027FF0346002B58D13F4883
:10281000FDF7B4FF0023FB600AE0344AFB68134471
:102820001B7819463648FDF7A9FFFB680133FB60AA
:10283000FB68062BF1DD3348FDF7A0FF2C4B01228E
:102840001A7007220021294809F054F938E030486D
:10285000FDF794FF4FF4FA6307222449254803F05B
:10286000FAFE0346002B09D041F6583307221F49D0
:10287000214803F0F0FE0346002B31D12548FDF737
:102880007DFF0023BB600AE0184ABB6813441B7835
:1028900019461B48FDF772FFBB680133BB60BB687C
:1028A000062BF1DD1748FDF769FF072200210F48CD
:1028B00009F020F90E4B00221A70FFF739FF0FE0E4
:1028C00000BF0DE00A4B00221A701348FDF756FFB7
:1028D00007220021054809F00DF9FFF729FF00E064
:1028E00000BF00BF1837BD4680BD00BFBC0400203C
:1028F000A40400205006002028050020C4CA0008B7
:10290000F4CA0008FCCA000800CB000828CB000865
:1029100054CB000880CB0008B0CB000880B400AFD7
:1029200000BFBD4680BC704780B400AFFEE780B4F6
:1029300000AFFEE780B400AFFEE780B400AFFEE773
:1029400080B400AFFEE780B400AF00BFBD4680BCDE
:10295000704780B400AF00BFBD4680BC704780B4F4
:1029600000AF00BFBD4680BC704780B500AF00F02F
:1029700043FD00BF80BD000080B500AF024801F0FC
:102980003DF800BF80BD00BFE406002080B500AF69
:10299000024801F033F800BF80BD00BF44070020AB
:1029A00080B500AF024801F029F800BF80BD00BF2C
:1029B000A407002080B500AF024801F01FF800BF57
:1029C00080BD00BF0408002080B500AF024803F0BE
:1029D000D9FF00BF80BD00BFBC05002080B500AF9F
:1029E000024803F0CFFF00BF80BD00BF50060020AB
:1029F00080B500AF024803F0C5FF00BF80BD00BF37
:102A00002805002080B500AF024803F057F900BF49
:102A100080BD00BFC404002080B485B000AF7860E2
:102A20004FF0B0435A6E4FF0B0417B6813434B6692
:102A30004FF0B0435A6E7B681340FB60FB6800BFE9
:102A40001437BD4680BC704780B500AF064B1022DE
:102A50001A60054802F0B0FE0346002B01D0FFF7D4
:102A600061FE00BF80BD00BFC404002080B582B0FD
:102A700000AF78600120FFF7CFFF00220021322055
:102A800000F0A3FD322000F0BAFD00BF0837BD46BC
:102A900080BD80B400AF00BFBD4680BC7047000061
:102AA00080B582B000AF00237B60064B1B78002B03
:102AB00002D000F008F978607B6818460837BD46F8
:102AC00080BD00BFD004002080B582B000AF786028
:102AD0007B68184600F025F900BF0837BD4680BD69
:102AE00080B586B000AF7860144A154BD31A7B616D
:102AF0007B693B61134B1B68002B02D1114B124ABF
:102B00001A60104B1A687B6813443A699A4207D2DC
:102B100008F0F8FF03460C221A604FF0FF3309E07B
:102B2000084B1B68FB60074B1A687B681344054A17
:102B30001360FB6818461837BD4680BD00000120B1
:102B400000040000D4040020700B002080B400AF0B
:102B500000BFBD4680BC704780B485B000AF7860D0
:102B60004FF0B0439A6D4FF0B0417B6813438B65D3
:102B70004FF0B0439A6D7B681340FB60FB6800BF69
:102B80001437BD4680BC704780B588B000AF07F1F0
:102B9000100300221A605A609A60DA603B1D00221E
:102BA0001A605A609A601D4B4FF080421A601B4BAE
:102BB0002F225A60194B00229A60184B184ADA608B
:102BC000164B00221A61154B00229A61134803F03C
:102BD00013FA0346002B01D0FFF7A4FD4FF48053F6
:102BE0003B6107F1100319460C4803F0A1FA0346B4
:102BF000002B01D0FFF796FD00237B600023FB60D4
:102C00003B1D1946054803F057FC0346002B01D035
:102C1000FFF788FD00BF2037BD4680BDD8040020E7
:102C200040420F0080B582B000AF78607B681B68BF
:102C3000B3F1804F02D10120FFF78EFF00BF0837AC
:102C4000BD4680BD80B483B000AF0023FB71FB792B
:102C500018460C37BD4680BC704780B485B000AFC5
:102C600078600023FB73FB7B18461437BD4680BC9D
:102C7000704780B483B000AF0023FB71FB79184626
:102C80000C37BD4680BC704780B400AF024B1B6858
:102C90001846BD4680BC70472405002080B400AFB4
:102CA000024B1B681846BD4680BC704724050020B7
:102CB00080B483B000AF00237B607B6818460C377C
:102CC000BD4680BC704780B483B000AF00237B60FA
:102CD0007B6818460C37BD4680BC704780B483B013
:102CE00000AF00237B607B6818460C37BD4680BC74
:102CF000704780B485B000AF78600023FB60FB684C
:102D000018461437BD4680BC704780B485B000AF0C
:102D100078600023FB60FB6818461437BD4680BC12
:102D2000704780B483B000AF786000BF0C37BD46F9
:102D300080BC704780B485B000AF78604FF0B0437E
:102D4000DA6C4FF0B0417B681343CB644FF0B04373
:102D5000DA6C7B681340FB60FB6800BF1437BD462C
:102D600080BC704780B485B000AF78604FF0B0434E
:102D70009A6D4FF0B0417B6813438B654FF0B043C1
:102D80009A6D7B681340FB60FB6800BF1437BD463B
:102D900080BC704780B485B000AF78604FF0B0431E
:102DA000DA6D4FF0B0417B681343CB654FF0B04311
:102DB000DA6D7B681340FB60FB6800BF1437BD46CB
:102DC00080BC704780B485B000AF78604FF0B043EE
:102DD0001A6E4FF0B0417B6813430B664FF0B0435F
:102DE0001A6E7B681340FB60FB6800BF1437BD465A
:102DF00080BC704780B500AF224B234A1A60214B3C
:102E0000224A5A601F4B00229A601E4B0022DA6051
:102E10001C4B00221A611B4B0C225A61194B0022D9
:102E20009A61184B00221A62164B00225A62154B07
:102E300000229A62134B00225A66124803F0BBFB31
:102E40000346002B01D0FFF76DFC00210D4804F074
:102E5000E3FF0346002B01D0FFF764FC0021094883
:102E600005F018F80346002B01D0FFF75BFC05487E
:102E700004F09AFF0346002B01D0FFF753FC00BF7C
:102E800080BD00BF280500200080004024330300DF
:102E900080B500AF224B234A1A60214B4FF4E13238
:102EA0005A601F4B00229A601D4B0022DA601C4BB7
:102EB00000221A611A4B0C225A61194B00229A61A6
:102EC000174B0022DA61164B00221A62144B0022C3
:102ED0005A62134B00229A62114803F06CFB0346BE
:102EE000002B01D0FFF71EFC00210D4804F094FFD9
:102EF0000346002B01D0FFF715FC0021084804F021
:102F0000C9FF0346002B01D0FFF70CFC044804F076
:102F10004BFF0346002B01D0FFF704FC00BF80BD30
:102F2000BC0500200038014080B500AF224B234A89
:102F30001A60214B4FF4E1325A601F4B00229A6015
:102F40001D4B0022DA601C4B00221A611A4B0C2226
:102F50005A61194B00229A61174B0022DA61164B15
:102F600000221A62144B00225A62134B00229A620A
:102F7000114803F020FB0346002B01D0FFF7D2FBE2
:102F800000210D4804F048FF0346002B01D0FFF755
:102F9000C9FB0021084804F07DFF0346002B01D047
:102FA000FFF7C0FB044804F0FFFE0346002B01D0EE
:102FB000FFF7B8FB00BF80BD500600200044004072
:102FC00080B596B000AF786007F1440300221A6024
:102FD0005A609A60DA601A6107F10C033822002106
:102FE000184608F087FD7B681B68664A934240F0EC
:102FF00092802023FB600023FB6107F10C0318463D
:1030000002F026FA0346002B01D0FFF78BFB0120CC
:10301000FFF7C0FE0420FFF78DFE03237B6402232D
:10302000BB640023FB6400233B6508237B6507F139
:1030300044031946544800F07FFE544B544A1A602A
:10304000524B15225A60514B00229A604F4B00227E
:10305000DA604E4B80221A614C4B00225A614B4B76
:1030600000229A61494B0022DA61484B00221A6221
:10307000464800F0DFFA0346002B01D0FFF752FB71
:103080001021424800F080FD0346002B01D0FFF7DD
:1030900049FB7B683D4AC3F880203C4A7B689362C9
:1030A0003C4B3D4A1A603B4B16225A60394B10226A
:1030B0009A60384B0022DA60364B80221A61354B19
:1030C00000225A61334B00229A61324B0022DA61AE
:1030D000304B00221A622F4800F0ACFA0346002B56
:1030E00001D0FFF71FFB10212A4800F04DFD0346D9
:1030F000002B01D0FFF716FB7B68264ADA67254ACA
:103100007B68936200220021262000F05EFA2620D0
:1031100000F075FADEE07B681B68204A93423FD1DD
:103120000123FB604FF440333B6107F10C03184669
:1031300002F08EF90346002B01D0FFF7F3FA4FF4AB
:103140008040FFF73FFE0120FFF7F4FD4FF4C0631E
:103150007B640223BB640023FB6400233B650723DD
:103160007B6507F1440319464FF0904000F0E4FD01
:1031700000220021242000F028FA242000F03FFA49
:10318000A8E000BF0080004000080048E4060020DE
:1031900008000240440700201C00024000380140A3
:1031A0007B681B684D4A934240F094800223FB6089
:1031B0004FF440237B6107F10C03184602F048F9F5
:1031C0000346002B01D0FFF7ADFA4FF40030FFF7B4
:1031D000C9FD0120FFF7AEFD0C237B640223BB6415
:1031E0000023FB6400233B6507237B6507F1440351
:1031F00019464FF0904000F09FFD394B394A1A6054
:10320000374B13225A60364B00229A60344B00220F
:10321000DA60334B80221A61314B00225A61304B05
:1032200000229A612E4B0022DA612D4B00221A6295
:103230002B4800F0FFF90346002B01D0FFF772FA8C
:103240001021274800F0A0FC0346002B01D0FFF717
:1032500069FA7B68224AC3F88020214A7B6893621E
:10326000214B224A1A60204B14225A601E4B102216
:103270009A601D4B0022DA601B4B80221A611A4BA8
:1032800000225A61184B00229A61174B0022DA6122
:10329000154B00221A62144800F0CCF90346002BAB
:1032A00001D0FFF73FFA10210F4800F06DFC0346F4
:1032B000002B01D0FFF736FA7B680B4ADA670A4A1F
:1032C0007B68936200220021252000F07EF92520F2
:1032D00000F095F900BF5837BD4680BD004400405E
:1032E000A4070020300002400408002044000240EF
:1032F0000D488546FFF72AFC0C480D490D4A00236E
:1033000002E0D458C4500433C4188C42F9D30A4A9A
:103310000A4C002301E013600432A242FBD308F000
:10332000F7FBFDF7F7FCFEE700000120000000209E
:10333000680000209CCE000868000020700B002070
:10334000FEE7000080B582B000AF0023FB710320D0
:1033500000F030F901F09EFE0346094A1360002098
:1033600000F010F80346002B02D00123FB7101E0AE
:10337000FFF7D4FAFB7918460837BD4680BD00BF79
:103380000C00002080B584B000AF78600023FB7390
:10339000174B1B78002B24D001F07CFE0246144B07
:1033A0001B7819464FF47A73B3FBF1F3B2FBF3F3D6
:1033B000184600F032F90346002B0FD17B680F2B23
:1033C00009D8002279684FF0FF3000F0FEF8094A72
:1033D0007B68136007E00123FB7304E00123FB73A8
:1033E00001E00123FB73FB7B18461037BD4680BD0F
:1033F000140000201000002080B400AF054B1B78A3
:103400001A46054B1B681344034A136000BFBD46B0
:1034100080BC7047140000206408002080B485B090
:1034200000AF78607B6803F00703FB600C4BDB6840
:10343000BB60BA684FF6FF031340BB60FB681A021B
:10344000BB68134343F0BF6343F40033BB60044ADB
:10345000BB68D36000BF1437BD4680BC704700BF57
:1034600000ED00E080B400AF044BDB681B0A03F002
:1034700007031846BD4680BC704700BF00ED00E062
:1034800080B483B000AF0346FB7197F90730002B7F
:103490000BDBFB7903F01F02064997F907305B0944
:1034A000012000FA02F241F8232000BF0C37BD468C
:1034B00080BC704700E100E080B483B000AF0346F9
:1034C0003960FB7197F90730002B0ADB3B68DAB2F1
:1034D0000C4997F907301201D2B20B4483F800234C
:1034E0000AE03B68DAB20849FB7903F00F03043BBA
:1034F0001201D2B20B441A7600BF0C37BD4680BC15
:10350000704700BF00E100E000ED00E080B489B04A
:1035100000AFF860B9607A60FB6803F00703FB61F5
:10352000FB69C3F10703042B28BF0423BB61FB69BC
:103530000433062B02D9FB69033B00E000237B61C7
:103540004FF0FF32BB6902FA03F3DA43BB681A405B
:103550007B699A404FF0FF317B6901FA03F3D9434D
:103560007B680B40134318462437BD4680BC704728
:1035700080B582B000AF78607B68013BB3F1807F9B
:1035800001D301230FE00A4A7B68013B53600F21FE
:103590004FF0FF30FFF790FF054B00229A60044B7D
:1035A00007221A60002318460837BD4680BD00BFB9
:1035B00010E000E080B582B000AF78607868FFF777
:1035C0002DFF00BF0837BD4680BD80B586B000AF77
:1035D0000346B9607A60FB73FFF744FF78617A684D
:1035E000B9687869FFF792FF024697F90F301146E4
:1035F0001846FFF761FF00BF1837BD4680BD80B594
:1036000082B000AF0346FB7197F907301846FFF709
:1036100037FF00BF0837BD4680BD80B582B000AF20
:1036200078607868FFF7A4FF034618460837BD4660
:1036300080BD000080B582B000AF78607B68002B51
:1036400001D101238EE07B681B681A46474B9A42E2
:103650000FD87B681B681A46454B1344454AA2FBAA
:1036600003231B099A007B685A647B68424A1A64E8
:103670000EE07B681B681A46404B13443D4AA2FB90
:1036800003231B099A007B685A647B683C4A1A64CE
:103690007B68022283F825207B681B681B687A6898
:1036A000126823F4FF4323F0700313607B681B68E8
:1036B00019687B689A687B68DB681A437B681B69BA
:1036C0001A437B685B691A437B689B691A437B6872
:1036D000DB691A437B681B6A1A437B681B680A43D1
:1036E0001A60786800F0BCFA7B689B68B3F5804F7D
:1036F00002D17B6800225A607B685A687B689B6CA9
:1037000002F07F021A607B68DB6C7A68126D5A6087
:103710007B685B68002B10D07B685B68042B0CD83F
:10372000786800F0E5FA7B685B6D00221A607B68C0
:103730009B6D7A68D26D5A6008E07B6800225A65FA
:103740007B6800229A657B680022DA657B6800222C
:10375000DA637B68012283F825207B68002283F8E6
:103760002420002318460837BD4680BD07040240C8
:10377000F8FFFDBFCDCCCCCC00000240F8FBFDBF74
:103780000004024080B586B000AFF860B9607A608E
:103790003B600023FB75FB6893F82430012B01D1BB
:1037A000022369E0FB68012283F82420FB6893F878
:1037B0002530DBB2012B55D1FB68022283F825208E
:1037C000FB680022DA63FB681B681A68FB681B68E9
:1037D00022F001021A603B687A68B968F86800F064
:1037E00002FAFB681B6B002B08D0FB681B681A6889
:1037F000FB681B6842F00E021A600FE0FB681B6852
:103800001A68FB681B6822F004021A60FB681B68D8
:103810001A68FB681B6842F00A021A60FB689B6C1E
:103820001B6803F48033002B07D0FB689B6C1A687D
:10383000FB689B6C42F480721A60FB685B6D002B26
:1038400007D0FB685B6D1A68FB685B6D42F48072A1
:103850001A60FB681B681A68FB681B6842F001026B
:103860001A6008E0FB688022DA63FB68002283F8B4
:1038700024200123FB75FB7D18461837BD4680BD0B
:1038800080B483B000AF78607B68002B01D1012346
:103890004FE07B6893F82530DBB2022B08D07B68C1
:1038A0000422DA637B68002283F82420012340E0AD
:1038B0007B681B681A687B681B6822F00E021A601E
:1038C0007B689B6C1A687B689B6C22F480721A6020
:1038D0007B681B681A687B681B6822F001021A600B
:1038E0007B685B6C03F01C027B681B6C012101FA96
:1038F00002F25A607B68DB6C7A68126D5A607B68F2
:103900005B6D002B0CD07B685B6D1A687B685B6D10
:1039100022F480721A607B689B6D7A68D26D5A605F
:103920007B68012283F825207B68002283F824200D
:10393000002318460C37BD4680BC704780B584B064
:1039400000AF78600023FB737B6893F82530DBB20F
:10395000022B05D07B680422DA630123FB7347E066
:103960007B681B681A687B681B6822F00E021A606D
:103970007B681B681A687B681B6822F001021A606A
:103980007B689B6C1A687B689B6C22F480721A605F
:103990007B685B6C03F01C027B681B6C012101FAE5
:1039A00002F25A607B68DB6C7A68126D5A607B6841
:1039B0005B6D002B0CD07B685B6D1A687B685B6D60
:1039C00022F480721A607B689B6D7A68D26D5A60AF
:1039D0007B68012283F825207B68002283F824205D
:1039E0007B689B6B002B03D07B689B6B7868984748
:1039F000FB7B18461037BD4680BD000080B584B003
:103A000000AF78607B681B6C1B68FB607B681B6881
:103A10001B68BB607B685B6C03F01C0304229A404C
:103A2000FB681340002B27D0BB6803F00403002B76
:103A300022D07B681B681B6803F02003002B07D192
:103A40007B681B681A687B681B6822F004021A6096
:103A50007B685B6C03F01C027B681B6C042101FA21
:103A600002F25A607B681B6B002B00F081807B6840
:103A70001B6B786898477BE07B685B6C03F01C03EA
:103A800002229A40FB681340002B3DD0BB6803F034
:103A90000203002B38D07B681B681B6803F02003EF
:103AA000002B0BD17B681B681A687B681B6822F0AF
:103AB0000A021A607B68012283F825207B681B6854
:103AC0001A462E4B9A4209D97B685B6C03F01C03A3
:103AD0002B4A022101FA03F3536008E07B685B6C18
:103AE00003F01C03274A022101FA03F353607B68A9
:103AF000002283F824207B68DB6A002B38D07B68A7
:103B0000DB6A7868984733E07B685B6C03F01C03E2
:103B100008229A40FB681340002B2AD0BB6803F0B0
:103B20000803002B25D07B681B681A687B681B681C
:103B300022F00E021A607B685B6C03F01C027B684B
:103B40001B6C012101FA02F25A607B680122DA63E0
:103B50007B68012283F825207B68002283F82420DB
:103B60007B685B6B002B04D07B685B6B7868984745
:103B700000BF00BF1037BD4680BD00BF80000240BF
:103B8000000402400000024080B485B000AF7860BD
:103B900039600023FB727B68002B03D10123FB7289
:103BA000FB7A1BE07B681B681B68FB603B6803F0CB
:103BB0001003002B0DD03B6803F48013002B04D0BE
:103BC000FB6843F48013FB6003E0FB6823F480137D
:103BD000FB607B681B68FA681A60FB7A184614372A
:103BE000BD4680BC704780B485B000AFF860B96056
:103BF0007A603B60FB68DB6CFA68126D5A60FB68A8
:103C00005B6D002B04D0FB689B6DFA68D26D5A6027
:103C1000FB685B6C03F01C02FB681B6C012101FA62
:103C200002F25A60FB681B683A685A60FB689B683E
:103C3000102B08D1FB681B687A689A60FB681B68C8
:103C4000BA68DA6007E0FB681B68BA689A60FB68CC
:103C50001B687A68DA6000BF1437BD4680BC7047C5
:103C600080B485B000AF78607B681B681A461C4B37
:103C70009A4213D87B685B6C9B089B0003F18043DE
:103C800003F502337A6893647B681B68DBB2083BF8
:103C9000144AA2FB03231B09FB6011E07B685B6CE9
:103CA0009B089A00104B13447A6893647B681B68E6
:103CB000DBB2083B0B4AA2FB03231B090733FB6063
:103CC0007B680A4ADA64FB6803F01F0301229A400A
:103CD0007B681A6500BF1437BD4680BC704700BFC3
:103CE00007040240CDCCCCCC1C0802408008024026
:103CF00080B485B000AF78607B685B6803F07F03B9
:103D0000FB60FA680A4B13449B001A467B685A65AD
:103D10007B68084A9A65FB68013B03F003030122B4
:103D20009A407B68DA6500BF1437BD4680BC704797
:103D30003F8200104009024080B487B000AF786035
:103D4000396000237B6140E13B681A6801217B698F
:103D500001FA03F31340FB60FB68002B00F0328193
:103D60003B685B6803F00303012B05D03B685B688D
:103D700003F00303022B30D17B689B683B617B69B6
:103D80005B00032202FA03F3DB433A6913403B6111
:103D90003B68DA687B695B0002FA03F33A69134314
:103DA0003B617B683A699A607B685B683B61012292
:103DB0007B6902FA03F3DB433A6913403B613B68DA
:103DC0005B681B0903F001027B6902FA03F33A699D
:103DD00013433B617B683A695A603B685B6803F058
:103DE0000303032B17D07B68DB683B617B695B00B7
:103DF000032202FA03F3DB433A6913403B613B6859
:103E00009A687B695B0002FA03F33A6913433B61EA
:103E10007B683A69DA603B685B6803F00303022B56
:103E200023D17B69DA087B68083253F822303B6182
:103E30007B6903F007039B000F2202FA03F3DB43C5
:103E40003A6913403B613B681A697B6903F00703D9
:103E50009B0002FA03F33A6913433B617B69DA087A
:103E60007B680832396943F822107B681B683B6124
:103E70007B695B00032202FA03F3DB433A691340D8
:103E80003B613B685B6803F003027B695B0002FAFD
:103E900003F33A6913433B617B683A691A603B68F4
:103EA0005B6803F44033002B00F08C804E4A7B6942
:103EB0009B08023352F823303B617B6903F0030314
:103EC0009B00072202FA03F3DB433A6913403B618C
:103ED0007B68B3F1904F0DD07B68444A934207D082
:103EE0007B68434A934201D1022304E0072302E0A6
:103EF000012300E000237A6902F00302920093405C
:103F00003A6913433B6138497B699B0802333A693C
:103F100041F82320374B1B683B61FB68DB433A6960
:103F200013403B613B685B6803F48013002B03D0B4
:103F30003A69FB6813433B612E4A3B6913602D4B82
:103F40005B683B61FB68DB433A6913403B613B685C
:103F50005B6803F40013002B03D03A69FB6813433A
:103F60003B61244A3B695360224BD3F880303B616C
:103F7000FB68DB433A6913403B613B685B6803F4D1
:103F80008033002B03D03A69FB6813433B61194A25
:103F90003B69C2F88030174BD3F884303B61FB6833
:103FA000DB433A6913403B613B685B6803F40033D1
:103FB000002B03D03A69FB6813433B610D4A3B6910
:103FC000C2F884307B6901337B613B681A687B6986
:103FD00022FA03F3002B7FF4B7AE00BF00BF1C37FB
:103FE000BD4680BC704700BF00000140000400488F
:103FF000000800480008005880B483B000AF786023
:104000000B467B8013467B707B78002B03D07A882D
:104010007B689A6102E07A887B689A6200BF0C37FD
:10402000BD4680BC7047000080B400AF044B1B68E5
:10403000034A43F48073136000BFBD4680BC7047E1
:104040000004005880B400AF034B1B6803F4C06346
:104050001846BD4680BC70470004005880B400AFCD
:10406000064B1B6803F48073B3F5807F01D10123F5
:1040700000E000231846BD4680BC7047000400588D
:1040800080B400AF4FF0B0431B684FF0B04243F430
:104090000013136000BFBD4680BC704780B400AF02
:1040A0004FF0B0431B684FF0B04223F4001313608D
:1040B00000BFBD4680BC704780B400AF4FF0B04336
:1040C0001B6803F48013B3F5801F01D1012300E0C6
:1040D00000231846BD4680BC704780B400AF4FF047
:1040E000B0431B684FF0B04243F48033136000BF0D
:1040F000BD4680BC704780B400AF4FF0B0431B6832
:104100004FF0B04223F48033136000BFBD4680BC43
:10411000704780B400AF4FF0B0431B6803F4003326
:10412000B3F5003F01D1012300E000231846BD464E
:1041300080BC704780B400AF4FF0B0431B684FF0B5
:10414000B04243F48073136000BFBD4680BC70472B
:1041500080B400AF4FF0B0431B684FF0B04223F47F
:104160008073136000BFBD4680BC704780B400AF51
:104170004FF0B0431B6803F48063B3F5806F01D147
:10418000012300E000231846BD4680BC704780B480
:1041900083B000AF78604FF0B0435B6823F0FE421D
:1041A0007B681B064FF0B04113434B6000BF0C37D8
:1041B000BD4680BC704780B400AF4FF0B043D3F829
:1041C000903003F00203022B01D1012300E0002311
:1041D0001846BD4680BC704780B400AF4FF0B04376
:1041E000D3F894304FF0B04243F00103C2F894305A
:1041F00000BFBD4680BC704780B400AF4FF0B043F5
:10420000D3F894304FF0B04223F00103C2F8943059
:1042100000BFBD4680BC704780B400AF4FF0B043D4
:10422000D3F8943003F00203022B01D1012300E004
:1042300000231846BD4680BC704780B400AF4FF0E5
:10424000B0431B684FF0B04243F00103136000BF5E
:10425000BD4680BC704780B400AF4FF0B0431B68D0
:104260004FF0B04223F00103136000BFBD4680BC95
:10427000704780B400AF4FF0B0431B6803F00203F7
:10428000022B01D1012300E000231846BD4680BC6B
:10429000704780B400AF4FF0B0431B6803F00803D1
:1042A000082B01D1012300E000231846BD4680BC45
:1042B000704780B400AF4FF0B0431B6803F0F003C9
:1042C0001846BD4680BC704780B400AF4FF0B04385
:1042D000D3F8943003F470631846BD4680BC704731
:1042E00080B483B000AF78604FF0B0435B6823F4D4
:1042F0007F427B681B024FF0B04113434B6000BF0D
:104300000C37BD4680BC704780B483B000AF786086
:104310004FF0B0439B6823F003024FF0B0417B683D
:1043200013438B6000BF0C37BD4680BC704780B420
:1043300000AF4FF0B0439B6803F00C031846BD4636
:1043400080BC704780B483B000AF78604FF0B0435A
:104350009B6823F0F0024FF0B0417B6813438B6001
:1043600000BF0C37BD4680BC704780B483B000AF3F
:1043700078604FF0B043D3F8083123F0F0024FF0EB
:10438000B0417B681343C1F8083100BF0C37BD460C
:1043900080BC704780B483B000AF78604FF0B0430A
:1043A000D3F8083123F00F027B681B094FF0B041AE
:1043B0001343C1F8083100BF0C37BD4680BC7047BD
:1043C00080B483B000AF78604FF0B0439B6823F4B3
:1043D000E0624FF0B0417B6813438B6000BF0C3745
:1043E000BD4680BC704780B483B000AF78604FF0AA
:1043F000B0439B6823F460524FF0B0417B68134395
:104400008B6000BF0C37BD4680BC704780B400AFE6
:104410004FF0B0439B6803F0F0031846BD4680BCE4
:10442000704780B400AF4FF0B043D3F808311B01A0
:1044300003F0F0031846BD4680BC704780B400AF5F
:104440004FF0B0439B6803F4E0631846BD4680BC60
:10445000704780B400AF4FF0B0439B6803F46053E3
:104460001846BD4680BC704780B400AF4FF0B043E3
:104470001B684FF0B04243F08073136000BFBD462D
:1044800080BC704780B400AF4FF0B0431B684FF062
:10449000B04223F08073136000BFBD4680BC7047FC
:1044A00080B400AF4FF0B0431B6803F00073B3F16A
:1044B000007F01D1012300E000231846BD4680BCE7
:1044C000704780B400AF4FF0B043DB681B0A03F0C5
:1044D0007F031846BD4680BC704780B400AF4FF0E4
:1044E000B043DB6803F060431846BD4680BC7047AC
:1044F00080B400AF4FF0B043DB6803F070031846A0
:10450000BD4680BC704780B400AF4FF0B043DB685D
:1045100003F003031846BD4680BC704780B400AF6B
:104520004FF0B0439B6803F48033B3F5803F01D173
:10453000012300E000231846BD4680BC704780B4CC
:1045400000AF4FF0B043D3F8083103F40033B3F5B4
:10455000003F01D1012300E000231846BD4680BC86
:10456000704780B400AF4FF0B043D3F8083103F484
:104570008033B3F5803F01D1012300E000231846CA
:10458000BD4680BC704780B400AF4FF0B0439B681D
:1045900003F40033B3F5003F01D1012300E0002311
:1045A0001846BD4680BC704780B400AF4FF0B043A2
:1045B0009B6803F48023B3F5802F01D1012300E031
:1045C00000231846BD4680BC7047000080B588B007
:1045D00000AF78607B68002B01D101236FE3FFF708
:1045E000A6FEF861FFF78FFFB8617B681B6803F0D8
:1045F0002003002B00F0C480FB69002B05D0FB6971
:104600000C2B76D1BB69012B73D17B681B6A002B05
:1046100001D1012353E37B689A6A4FF0B0431B68D2
:1046200003F00803002B05D04FF0B0431B6803F0E4
:10463000F00306E04FF0B043D3F894301B0903F0C9
:10464000F003934222D27B689B6A184600F05AFD21
:104650000346002B01D0012331E34FF0B0431B6828
:104660004FF0B04243F0080313604FF0B0431B68B3
:1046700023F0F0027B689B6A4FF0B04113430B605C
:104680007B685B6A1846FFF72BFE21E04FF0B043D2
:104690001B684FF0B04243F0080313604FF0B04383
:1046A0001B6823F0F0027B689B6A4FF0B041134314
:1046B0000B607B685B6A1846FFF712FE7B689B6A9B
:1046C000184600F01FFD0346002B01D00123F6E23F
:1046D00000F0E0FC0346A74A1360A74B1B6818468E
:1046E000FEF750FE0346FB74FB7C002B47D0FB7C9F
:1046F000E5E27B681B6A002B2CD0FFF79EFDFEF7DE
:10470000CFF9786108E0FEF7CBF902467B69D31A4E
:10471000022B01D90323D2E2FFF7ABFD0346002BA6
:10472000F1D04FF0B0431B684FF0B04243F00803A4
:1047300013604FF0B0431B6823F0F0027B689B6A64
:104740004FF0B04113430B607B685B6A1846FFF77C
:10475000C7FD15E0FFF77FFDFEF7A2F9786108E0DD
:10476000FEF79EF902467B69D31A022B01D9032377
:10477000A5E2FFF77EFD0346002BF1D100E000BF6C
:104780007B681B6803F00103002B58D0FB69082BE2
:1047900005D0FB690C2B08D1BB69032B05D17B68C5
:1047A0005B68002B4BD1012389E24FF0B0431B68BB
:1047B00023F480127B689B684FF0B04113430B6079
:1047C0007B685B68B3F5803F02D1FFF786FC0DE0A4
:1047D0007B685B68B3F5041F04D1FFF751FCFFF75A
:1047E0007CFC03E0FFF787FCFFF758FC7B685B6805
:1047F000002B12D0FEF754F9786108E0FEF750F96B
:1048000002467B69D31A642B01D9032357E2FFF7D1
:1048100080FC0346002BF1D011E0FEF741F97861EE
:1048200008E0FEF73DF902467B69D31A642B01D9F3
:10483000032344E2FFF76DFC0346002BF1D17B68B4
:104840001B6803F00203002B46D0FB69042B05D044
:10485000FB690C2B0ED1BB69022B0BD17B681B694A
:10486000002B01D101232AE27B685B691846FFF720
:104870008EFC31E07B681B69002B19D0FFF75AFCD6
:10488000FEF70EF9786108E0FEF70AF902467B6947
:10489000D31A022B01D9032311E2FFF767FC034669
:1048A000002BF1D07B685B691846FFF770FC13E0C2
:1048B000FFF74EFCFEF7F4F8786108E0FEF7F0F839
:1048C00002467B69D31A022B01D90323F7E1FFF7D4
:1048D0004DFC0346002BF1D17B681B6803F00803F5
:1048E000002B6ED07B689B69002B56D04FF0B043F5
:1048F000D3F89430FB607B68DA69FB6803F010033F
:104900009A4231D0FB6803F00203002B06D0FB680B
:1049100003F00103002B01D10123D0E1FB6803F078
:104920000103002B13D0FFF767FCFEF7B9F878619D
:1049300008E0FEF7B5F802467B69D31A112B01D9BE
:104940000323BCE1FFF768FC0346002BF1D14FF0D5
:10495000B043D3F8943023F010027B68DB694FF04A
:10496000B0411343C1F89430FFF736FCFEF798F8D6
:1049700078610CE00C00002010000020FEF790F899
:1049800002467B69D31A112B01D9032397E1FFF764
:1049900043FC0346002BF1D013E0FFF72DFCFEF79C
:1049A0007FF8786108E0FEF77BF802467B69D31A4E
:1049B000112B01D9032382E1FFF72EFC0346002BC4
:1049C000F1D17B681B6803F00403002B00F0D88052
:1049D000FFF744FB0346002B13D1FFF725FBFEF73F
:1049E0005FF8786108E0FEF75BF802467B69D31A4E
:1049F000022B01D9032362E1FFF730FB0346002BB2
:104A0000F1D07B68DB68002B7BD07B68DB68852B73
:104A100003D07B68DB68052B09D14FF0B043D3F896
:104A200090304FF0B04243F00403C2F89030FEF7EC
:104A300037F878614FF0B043D3F890304FF0B04280
:104A400043F00103C2F890300AE0FEF729F802466D
:104A50007B69D31A41F28832934201D903232EE1B4
:104A6000FFF7A9FB0346002BEFD07B68DB68812BA7
:104A700003D07B68DB68852B21D1FEF711F87861C4
:104A80004FF0B043D3F890304FF0B04243F0800382
:104A9000C2F890300AE0FEF703F802467B69D31AA9
:104AA00041F28832934201D9032308E14FF0B04329
:104AB000D3F8903003F40063002BECD060E0FDF7F6
:104AC000EFFF78614FF0B043D3F890304FF0B04231
:104AD00023F08003C2F890300AE0FDF7E1FF0246C0
:104AE0007B69D31A41F28832934201D90323E6E06D
:104AF0004FF0B043D3F8903003F40063002BECD1B7
:104B00003EE0FDF7CDFF78614FF0B043D3F8903031
:104B10004FF0B04223F08003C2F890300AE0FDF776
:104B2000BFFF02467B69D31A41F28832934201D912
:104B30000323C4E04FF0B043D3F8903003F4006394
:104B4000002BECD1FDF7ACFF78614FF0B043D3F808
:104B500090304FF0B04223F00103C2F890300AE0E9
:104B6000FDF79EFF02467B69D31A41F288329342D9
:104B700001D90323A3E0FFF71EFB0346002BEFD16F
:104B80007B68DB6A002B00F09980FB690C2B6CD0F2
:104B90007B68DB6A022B4BD1FFF774FCFDF780FFCB
:104BA000786108E0FDF77CFF02467B69D31A0A2B87
:104BB00001D9032383E0FFF773FC0346002BF1D1F7
:104BC0004FF0B043DA68404B13407A68116B7A6853
:104BD000526B11437A68926B120211437A68D26B5E
:104BE00011437A68126C11437A68526C0A434FF091
:104BF000B0411343CB60FFF737FC4FF0B043DB68A5
:104C00004FF0B04243F08053D360FDF749FF786125
:104C100008E0FDF745FF02467B69D31A0A2B01D94C
:104C200003234CE0FFF73CFC0346002BF1D045E0AA
:104C3000FFF728FCFDF734FF786108E0FDF730FF4F
:104C400002467B69D31A0A2B01D9032337E0FFF709
:104C500027FC0346002BF1D14FF0B043DA684FF048
:104C6000B0411A4B1340CB6028E07B68DB6A012B14
:104C700001D1012323E04FF0B043DB68BB61BB6986
:104C800003F003027B681B6B9A4215D1BB6903F0EA
:104C900070027B685B6B9A420ED1BB6903F4FE42E3
:104CA0007B689B6B1B029A4206D1BB6903F0604292
:104CB0007B685B6C9A4201D0012300E00023184618
:104CC0002037BD4680BD00BF8C80C111FCFFFEEEC9
:104CD00080B584B000AF786039607B68002B01D16B
:104CE00001232CE1984B1B6803F007033A689A42B2
:104CF0001BD9954B1B6823F0070293493B6813436C
:104D00000B60FDF7CDFEF86008E0FDF7C9FE024636
:104D1000FB68D31A022B01D9032310E18A4B1B68CD
:104D200003F007033A689A42EFD17B681B6803F0EF
:104D30000203002B16D07B689B681846FFF702FB26
:104D4000FDF7AEFEF86008E0FDF7AAFE0246FB683C
:104D5000D31A022B01D90323F1E0FFF7DFFB03464F
:104D6000002BF1D07B681B6803F02003002B16D0CA
:104D70007B685B691846FFF7F8FAFDF791FEF8606B
:104D800008E0FDF78DFE0246FB68D31A022B01D91D
:104D90000323D4E0FFF7D3FB0346002BF1D07B685D
:104DA0001B6803F04003002B16D07B689B691846F4
:104DB000FFF7F0FAFDF774FEF86008E0FDF770FE0B
:104DC0000246FB68D31A022B01D90323B7E0FFF791
:104DD000C8FB0346002BF1D07B681B6803F004037B
:104DE000002B16D07B68DB681846FFF7E9FAFDF761
:104DF00057FEF86008E0FDF753FE0246FB68D31A41
:104E0000022B01D903239AE0FFF7BDFB0346002BD9
:104E1000F1D07B681B6803F00803002B17D07B6878
:104E20001B69DB001846FFF7DEFAFDF739FEF86074
:104E300008E0FDF735FE0246FB68D31A022B01D9C4
:104E400003237CE0FFF7B0FB0346002BF1D07B6827
:104E50001B6803F00103002B43D07B685B68022BC7
:104E600006D1FFF756F90346002B1ED1012366E059
:104E70007B685B68032B06D1FFF712FB0346002B10
:104E800013D101235BE07B685B68002B06D1FFF741
:104E9000F0F90346002B08D1012350E0FFF766F933
:104EA0000346002B01D1012349E07B685B6818466B
:104EB000FFF72AFAFDF7F4FDF8600AE0FDF7F0FDD0
:104EC0000246FB68D31A41F28832934201D9032388
:104ED00035E0FFF72CFA02467B685B689B009A423C
:104EE000ECD1194B1B6803F007033A689A421BD2B6
:104EF000154B1B6823F0070213493B6813430B60F3
:104F0000FDF7CEFDF86008E0FDF7CAFD0246FB683C
:104F1000D31A022B01D9032311E00B4B1B6803F0BA
:104F200007033A689A42EFD100F0B4F80346074A03
:104F30001360074B1B681846FEF724FA0346184611
:104F40001037BD4680BD00BF004000580C00002057
:104F50001000002090B587B000AF00237B610023D4
:104F60003B61FFF7E4F9B860FFF7CDFA7860BB6802
:104F7000002B05D0BB680C2B39D17B68012B36D1B7
:104F8000FFF787F90346002B15D1FFF782F9034697
:104F9000012B06D1FFF78DF903461B0A03F00F031F
:104FA00005E0FFF791F903461B0A03F00F03364AA9
:104FB00052F8233014E0FFF76CF90346012B06D1B9
:104FC000FFF777F903461B0903F00F0305E0FFF72E
:104FD0007BF903461B0903F00F032B4A52F82330D9
:104FE0003B61BB68002B15D13B697B6112E0BB685C
:104FF000042B02D1254B7B610CE0BB68082B09D147
:10500000FFF75AF80346012B02D1204B7B6101E0E8
:105010001F4B7B61FFF78BF903460C2B2FD1FFF75A
:1050200072FA78607B68022B03D07B68032B03D075
:105030000DE0164BFB600DE0FFF73EF80346012B39
:1050400002D1124BFB6005E0114BFB6002E03B69B3
:10505000FB6000BFFFF735FA0246FB6803FB02F472
:10506000FFF746FA03461B090133B4FBF3F4FFF7DD
:1050700034FA03465B0F0133B4FBF3F37B617B69C6
:1050800018461C37BD4690BD84CC00080024F400AF
:105090000048E80198B500AFFFF75CFF0446FFF752
:1050A000B5F903461B0903F00F03034A52F82330F6
:1050B000B4FBF3F3184698BD24CC000898B500AFB4
:1050C000FFF7E8FF0446FFF7B9F903461B0A034A56
:1050D00052F8233024FA03F3184698BD64CC000834
:1050E00098B500AFFFF7D6FF0446FFF7B2F90346C5
:1050F000DB0A034A52F8233024FA03F3184698BD1A
:1051000064CC000890B585B000AF78607B681B095F
:1051100003F00F03104A52F82330FB60FFF781F9C8
:1051200003461B0903F00F030C4A52F82330FA68B8
:10513000B2FBF3F3BB60BB68094AA2FB03239C0CE0
:10514000FEF780FF03461946204600F00BF80346A1
:1051500018461437BD4690BD84CC000824CC000806
:1051600083DE1B4380B58EB000AF786039603A4A69
:1051700007F1200392E80300186004331980374ACE
:1051800007F1180392E80300186004331980344AC9
:1051900007F10C0307CA83E8070000237B633B6821
:1051A000B3F5007F1BD100233B6314E03B6B5B0036
:1051B00038333B4433F8183C1A467B68934207D88F
:1051C0003B6B9B0038333B4453F82C3C7B6321E022
:1051D0003B6B01333B633B6B022BE7D91AE00023A7
:1051E000FB6214E0FB6A5B0038333B4433F8203C3D
:1051F0001A467B68934207D8FB6A9B0038333B44CE
:1052000053F82C3C7B6305E0FB6A0133FB62FB6ACD
:10521000022BE7D9134B1B6823F0070211497B6B64
:1052200013430B60FDF73CFCB86208E0FDF738FC67
:105230000246BB6AD31A022B01D9032307E0094BAC
:105240001B6803F007037A6B9A42EFD100231846DC
:105250003837BD4680BD00BFE4CB0008ECCB00086A
:10526000F4CB00080040005880B400AF4FF0B043CA
:10527000D3F8903003F00203022B01D1012300E0A8
:1052800000231846BD4680BC704780B483B000AF91
:1052900078604FF0B043D3F888207B681B0CDB4369
:1052A0001A407B689BB24FF0B0411343C1F888307D
:1052B00000BF0C37BD4680BC704780B483B000AFE0
:1052C00078604FF0B043D3F8883023F440724FF049
:1052D000B0417B681343C1F8883000BF0C37BD462E
:1052E00080BC704780B483B000AF78604FF0B043AB
:1052F000D3F8883023F440624FF0B0417B68134309
:10530000C1F8883000BF0C37BD4680BC704780B400
:1053100083B000AF78604FF0B043D3F888207B684B
:105320001B0903F47F23DB431A407B681B0103F452
:105330007F234FF0B0411343C1F8883000BF0C37D2
:10534000BD4680BC704780B483B000AF78604FF03A
:10535000B043D3F888207B681B0C1B04DB431A4046
:105360007B681B044FF0B0411343C1F8883000BF85
:105370000C37BD4680BC704780B483B000AF786006
:105380004FF0B043D3F8883023F040424FF0B041A3
:105390007B681343C1F8883000BF0C37BD4680BC22
:1053A000704780B483B000AF78604FF0B043D3F85B
:1053B000883023F040524FF0B0417B681343C1F86E
:1053C000883000BF0C37BD4680BC704780B483B0C6
:1053D00000AF78604FF0B043D3F8903023F44072C0
:1053E0004FF0B0417B681343C1F8903000BF0C37D9
:1053F000BD4680BC704780B400AF4FF0B043D3F8D7
:10540000903003F440731846BD4680BC704780B4AA
:1054100000AF4FF0B043D3F890304FF0B04243F4B8
:105420008033C2F8903000BFBD4680BC704780B466
:1054300000AF4FF0B043D3F890304FF0B04223F4B8
:105440008033C2F8903000BFBD4680BC704700007A
:1054500080B586B000AF786000237B610023FB74C9
:105460000023BB747B681B6803F48033002B58D087
:10547000FEF7DAFDFDF714FBF86009E0FDF710FB1D
:105480000246FB68D31A022B02D90323FB7406E001
:105490007B4B1B6803F48073B3F5807FEED1FB7CFC
:1054A000002B3CD1FFF7A7FF02467B685B6B9A425B
:1054B0000FD04FF0B043D3F8903023F440737B61AA
:1054C000FFF7A5FFFFF7B3FF4FF0B0427B69C2F8CB
:1054D00090307B6903F00203002B14D0FDF7E0FA53
:1054E000F8600BE0FDF7DCFA0246FB68D31A41F2E4
:1054F0008832934202D90323FB7404E0FFF7B4FE21
:105500000346012BEED1FB7C002B05D17B685B6B46
:105510001846FFF75BFF04E0FB7CBB7401E0FB7CFB
:10552000BB747B681B6803F00103002B04D07B680D
:105530005B681846FFF7A9FE7B681B6803F002034F
:10554000002B04D07B689B681846FFF79EFE7B68A3
:105550001B6803F02003002B04D07B681B691846EE
:10556000FFF7C0FE7B681B6803F40073002B04D0B8
:105570007B681B6A1846FFF7E6FE7B681B6803F42E
:105580008063002B04D07B685B6A1846FFF7DBFE64
:105590007B681B6803F40063002B04D07B689B6A64
:1055A0001846FFF7D0FE7B681B6803F04003002B12
:1055B00004D07B685B691846FFF7A9FE7B681B680F
:1055C00003F08003002B04D07B689B691846FFF72B
:1055D0009EFE7B681B6803F48073002B04D07B68FD
:1055E000DB691846FFF793FE7B681B6803F0100326
:1055F000002B11D07B68DB681846FFF75EFE7B68E6
:10560000DB68B3F5807F07D14FF0B043DB684FF024
:10561000B04243F08073D3607B681B6803F400439F
:10562000002B10D07B681B6B1846FFF7A5FE7B682C
:105630001B6B002B07D14FF0B043DB684FF0B0423B
:1056400043F08073D3607B681B6803F48043002BB6
:1056500011D07B68DB6A1846FFF7A3FE7B68DB6A24
:10566000B3F1005F07D14FF0B043DB684FF0B042B9
:1056700043F48033D360BB7C18461837BD4680BDE9
:105680000004005880B483B000AF7860064B9B687C
:1056900023F4006204497B6813438B6000BF0C371E
:1056A000BD4680BC704700BF0004005880B400AF06
:1056B000054BD3F89030044A43F40043C2F89030CD
:1056C00000BFBD4680BC70470004005880B400AFE6
:1056D000054BD3F89030044A23F40043C2F89030CD
:1056E00000BFBD4680BC70470004005880B400AFC6
:1056F000034B4FF400629A6100BFBD4680BC704707
:105700000004005880B400AF064B5B6903F002034D
:10571000022B01D1012300E000231846BD4680BCC6
:10572000704700BF0004005880B400AF064B5B69AF
:1057300003F00403042B01D1012300E000231846E9
:10574000BD4680BC704700BF0004005880B400AF65
:105750004FF0B043D3F894304FF0B04223F40043FD
:10576000C2F8943000BFBD4680BC704780B400AF23
:105770004FF0B043D3F8943003F48043B3F5804F37
:1057800001D1012300E000231846BD4680BC7047CC
:1057900080B483B000AF7860064BD3F89020054901
:1057A0007B681343C1F8903000BF0C37BD4680BC06
:1057B000704700BF0008005880B584B000AF786023
:1057C0007B68002B03D10123FB73FB7B52E000239A
:1057D000FB737B689B79BB73BB7B002B02D0BB7BCD
:1057E000032B09D17B6800225A717868FDF73EF9D6
:1057F0004FF48050FFF7CCFFBB7B002B26D17B689A
:1058000002229A71FFF7A2FF1C4B1A681346DB00B5
:105810009B1A9B00DB0C642202FB03F3BB60BB689A
:10582000002B05D10123FB737B6801229A6007E0FE
:10583000BB68013BBB60FFF799FF0346002BEED12D
:10584000FFF734FF4FF40060FFF71CFFFFF74EFF38
:10585000FB7B002B0AD17B681B68184600F0ACFA72
:105860007B6801221A717B6800229A607B680122A2
:105870009A71FB7B18461037BD4680BD0C00002096
:1058800080B586B000AFF8607A601A460B467B811F
:1058900013463B81FB689B79DBB2012B4AD1FB6845
:1058A0005B79012B01D1022345E0FB6801225A718B
:1058B000FB6802229A71F86800F04CFBFFF706FFC4
:1058C0000D21F86800F098FA7B891B0A9BB2DBB2C5
:1058D0001946F86800F090FA7B89DBB21946F8683F
:1058E00000F08AFA0023BB820AE0BB8A7A6813447C
:1058F0001B781946F86800F07FFABB8A0133BB8237
:10590000BA8A3B899A42F0D3FFF7D0FEF86800F0DC
:1059100045FBFB689B68002B02D00123FB7501E06F
:105920000023FB75FB6801229A71FB6800225A7103
:10593000FB7D00E0022318461837BD4680BD80B5C8
:1059400088B000AFF8607A601A460B467B81134638
:105950003B817B68BB61FB689B79DBB2012B4AD141
:10596000FB685B79012B01D1022345E0FB68012232
:105970005A71F86800F0EEFAFFF7A8FE1D21F868EA
:1059800000F03AFA7B891B0A9BB2DBB21946F86831
:1059900000F032FA7B89DBB21946F86800F02CFA85
:1059A0000021F86800F028FA0023FB8209E0B969B9
:1059B000F86800F077FABB690133BB61FB8A0133F9
:1059C000FB82FA8A3B899A42F1D3FFF76FFEF868AF
:1059D00000F0E4FAFB689B68002B02D00123FB7700
:1059E00001E00023FB77FB6801229A71FB6800222B
:1059F0005A71FB7F00E0022318462037BD4680BD68
:105A000080B586B000AFF8607A601A460B46FB722C
:105A100013463B81FB689B79DBB2012B4AD1FB68C3
:105A20005B79012B01D1022345E0FB6801225A7109
:105A3000F86800F08FFAFB7A842B02D0FB7A942B63
:105A400003D1FB6801221A7102E0FB6800221A717F
:105A5000FFF73CFEFB7A1946F86800F0CDF9002309
:105A6000BB820AE0BB8A7A6813441B781946F8683F
:105A700000F0C2F9BB8A0133BB82BA8A3B899A42E1
:105A8000F0D3FFF713FEFB7A842B02D0F86800F006
:105A900085FAFB689B68002B02D00123FB7501E0AF
:105AA0000023FB75FB6801229A71FB6800225A7182
:105AB000FB7D00E0022318461837BD4680BD80B547
:105AC00088B000AFF8607A601A460B46FB72134646
:105AD0003B817B68BB61FB689B79DBB2012B3DD1CD
